:100000000C942A000C94791D0C94B61D0C94F31DCD
:100010000C9447000C9447000C9447000C94470044
:100020000C9447000C9447000C9447000C94470034
:100030000C9447000C9447000C9447000C94470024
:100040000C9419250C9447000C9447000C9447001D
:100050000C94470011241FBECFE5D8E0DEBFCDBF12
:1000600011E0A0E6B0E0E0E5F8E602C005900D92F0
:10007000A237B107D9F711E0A2E7B1E001C01D92A4
:10008000A238B107E1F70E94A9330C9426340C94EE
:100090000000EF92FF920F93DF93CF93CDB7DEB7BF
:1000A00060970FB6F894DEBF0FBECDBFA82F002318
:1000B00009F461C07E010894E11CF11C88E0F7019D
:1000C00011928A95E9F729833A834B835C836D8388
:1000D0007E83AF83988780E2801BE82FFF27E7FDB0
:1000E000F09549815A816B817C81181684F01986BC
:1000F0001A861B861C86882799278E1B9F0B04C097
:10010000440F551F661F771F8A95D2F728C0202FEE
:10011000332727FD3095DB01CA01022E04C0880F6A
:10012000991FAA1FBB1F0A94D2F789879A87AB87AA
:10013000BC8704C07695679557954795EA95D2F7A1
:100140008D819E81AF81B88504C0880F991FAA1F39
:10015000BB1F2A95D2F7482B592B6A2B7B2B4D8737
:100160005E876F87788B29853A854B855C856D85A1
:100170007E85AF8598898A2F60960FB6F894DEBF8A
:100180000FBECDBFCF91DF910F91FF90EF900895FB
:10019000EF92FF920F931F937B018C0120E030E0E0
:1001A00040E05FE40E94D11688238CF0C801B701BB
:1001B00020E030E040E05FE40E949D140E948F1731
:1001C0009B01AC01205030404040504806C0C8015F
:1001D000B7010E948F179B01AC01B901CA011F91A1
:1001E0000F91FF90EF900895EF92FF920F931F935E
:1001F0007B018C0120E030E040E050E00E940117DC
:1002000088230CF05CC0C801B70190580E946801B7
:100210002195E1E0121608F0E0E03195F1E01316C7
:1002200008F0F0E0E32EEE1AE1E03E1508F0E0E021
:10023000FE2B4195A1E0141608F0A0E0F42EFF1A61
:10024000E1E04F1508F0E0E0AE2B5195F1E0151616
:1002500008F0F0E0052F0A1BE1E0501708F0E0E09D
:10026000FE2B6195A1E0161608F0A0E0162F1F1BCB
:10027000E1E0611708F0E0E0AE2B7195F1E01716B0
:1002800008F0F0E0B72FBA1BE1E07B1708F0E0E0E0
:10029000FE2B8195A1E0181608F0A0E0382F3F1B37
:1002A000F32FE1E0831708F0E0E0AE2B91953E2DAF
:1002B0004F2D502F612F7B2F8F2F9A1B04C0C80109
:1002C000B7010E9468011F910F91FF90EF90089570
:1002D000A0E0B0E0EEE6F1E00C94EF337B018C019E
:1002E00020E030E040E85FE30E94011788234CF4EF
:1002F000AA24BB24CC24DD24EE24FF2400E010E05B
:1003000086C0C801B70120E030E040E85FE40E9409
:100310000117882354F4C801B7010E94C8005B018B
:100320006C01EE24FF24870172C0C801B70120E0F0
:1003300030E040E85FE50E94011787FD0FC0AA2466
:10034000AA94BB24BA94CC24CA94DD24DA94EE2473
:10035000EA94FF24FA940FEF1FEF59C0C801B701C8
:1003600020E030E040E85FE20E94FB147B018C015A
:1003700022243324210190E1A92EB12CC12CD12CAF
:10038000C0E0D0E061E070E080E090E00A2C04C0C2
:10039000660F771F881F991F0A94D2F70E94E317F0
:1003A0003B014C01C801B701A40193010E94D11681
:1003B000882364F02A283B284C285D28C801B7010F
:1003C000A40193010E94F5157B018C01D694C7947A
:1003D000B794A7942196C530D105A1F6C801B701FD
:1003E00020E030E040E85FE40E94FB140E94C80077
:1003F0005B016C019B01A60160E070E080E090E091
:10040000022D0E94490059016A017B018C0195016E
:10041000A601B701C801CDB7DEB7E2E10C940B34F9
:10042000A2E0B0E0E6E1F2E00C94EF33122FB32E3D
:10043000A42E952E862E372E282E9A83C22ED32EAA
:10044000E42EF52EA701960160E070E080E090E0D8
:100450002117A1F43B1591F44A1581F4591571F453
:10046000681561F4731551F4821541F4AA819A1745
:1004700029F4C701B6010E94E317AAC0212F3B2D22
:100480004A2D592D682D732D822D9A8100E20E94EC
:100490005C18C901DA018030E0E09E07E1E0AE07B8
:1004A000E0E0BE0780F48F3F9105A105B10531F072
:1004B00028F028E030E040E050E016C020E030E0D6
:1004C00040E050E011C08030F0E09F07F0E0AF075F
:1004D000F1E0BF0728F028E130E040E050E004C040
:1004E00020E130E040E050E0022E04C0B695A79530
:1004F000979587950A94D2F7FC01E859FF4F8081C0
:1005000029013A01480E511C611C711C4982212F9E
:100510003B2D4A2D592D682D732D822D9A81042D46
:100520000E945C18C901DA014C015D0180E290E093
:100530008419950904C0CC0CDD1CEE1CFF1C8A95A7
:10054000D2F7C114D104E104F10441F081E090E05C
:10055000A0E0B0E0882A992AAA2ABB2A90E249168C
:1005600051046104710459F40F2EF0E0EF2EF0E015
:10057000FF2EF0E80F2FFFE41F2FF02D21C0AFE179
:100580004A1651046104710459F40F2EF0E0EF2E65
:10059000F0E0FF2EF0E00F2FFFE41F2FF02D10C032
:1005A00061E070E080E090E0098004C0660F771F92
:1005B000881F991F0A94D2F70E9431177B018C0182
:1005C000C501B4010E94E317A80197010E94FB1422
:1005D0002296E2E10C940B34A2E7B0E0E2EFF2E005
:1005E0000C94EF33982E892E712E88E0FE013196FF
:1005F000DF01682E1D926A94E9F729833A834B83C1
:100600005C836D837E839F829887FE013996DF012C
:100610001D928A95E9F7A986BA86CB86DC86ED8697
:10062000FE860F87188B8D819E81AF81B885B7FDBF
:1006300007C0E1961CAE1DAE1EAE1FAEE19764C0B2
:10064000219581E0121608F080E0319591E01316B3
:1006500008F090E0B32FB81B81E03B1708F080E072
:10066000982B419531E0141608F030E0A42FA91B17
:1006700081E04A1708F080E0382B519591E015167B
:1006800008F090E0F52FF31B81E05F1708F080E0A1
:10069000982B619531E0161608F030E0E62FE91B43
:1006A00081E06E1708F080E0382B719541E0171655
:1006B00008F040E0572F531B81E0751708F080E0E9
:1006C000482B892D819591E0181608F090E0682E4E
:1006D000641A462D31E0861508F030E0932B882D02
:1006E0008195891B2983BA83AB83FC83ED835E8369
:1006F0004F8388872FEF3FEF4FEF5FEFE1962CAFEF
:100700003DAF4EAF5FAFE1978D859E85AF85B889D0
:10071000B7FF6AC0E1964CAD5DAD6EAD7FADE197C0
:100720004095509560957095E1964CAF5DAF6EAF7A
:100730007FAFE197A19481E01A1408F080E0B194B2
:1007400091E01B1408F090E06B2D681B81E0B61659
:1007500008F080E0982BC19421E01C1408F020E000
:100760005C2D591B81E0C51608F080E0282BD19440
:1007700091E01D1408F090E04D2D421B81E0D4164D
:1007800008F080E0982BE19421E01E1408F020E0AE
:100790003E2D391B81E0E31608F080E0282BF19410
:1007A00091E01F1408F090E07F2D721B272F81E04D
:1007B000F71608F080E0982B019511E0101608F06C
:1007C00010E0802F891B982F81E0091708F080E046
:1007D000182B872D8195811BA9866A875B874C879B
:1007E0003D872E879F87888B99812A813B814C8109
:1007F0005D816E817F81A885B9851A850B85FC8412
:10080000ED84DE84CF84B88888E0E1E18E2E912CDF
:100810008C0E9D1EF401682E11926A94E9F7998B53
:100820002A8B3B8B4C8B5D8B6E8B7F8BA88F9E01B5
:10083000275E3F4FF90111928A95E9F7B98F1A8F18
:100840000B8FFC8EED8EDE8ECF8EB8A2298C3A8C6B
:100850004B8C5C8CED8CFE8C0F8D18A169887A888E
:100860008B889C8821966CAE7DAE8EAE9FAE219714
:100870006D887E888F88988CE114F104010511053C
:1008800009F0D9C3621473048404950408F057C1B5
:1008900000E0201600E0300601E0400600E05006CF
:1008A00088F41FEF211631044104510439F030F06F
:1008B00048E0E42EF12C012D112D18C0EE24FF2468
:1008C000870114C020E0221620E0320620E0420614
:1008D00021E0520630F038E1E32EF12C012D112DEC
:1008E00005C020E1E22EF12C012D112DD201C10114
:1008F0000E2C04C0B695A795979587950A94D2F7C4
:1009000088599F4FDC012C9180E290E0A0E0B0E09C
:100910008E199F09A00BB10B7C018D01E21AF10821
:1009200001091109E114F10401051105D1F10E2CA1
:1009300004C0220C331C441C551C0A94D2F7A40199
:1009400093010E2C04C0220F331F441F551F0A941D
:10095000D2F780E290E08E199F0921966CAC7DACB5
:100960008EAC9FAC219704C096948794779467943B
:100970008A95D2F7622A732A842A952A2196ACACEA
:10098000BDACCEACDFAC219704C0AA0CBB1CCC1C08
:10099000DD1CEA94D2F72196ACAEBDAECEAEDFAE92
:1009A00021976201EE24FF242996CCAEDDAEEEAE97
:1009B000FFAE299792018101207030702D960CAF07
:1009C0001DAF2EAF3FAF2D97C401B301A701960114
:1009D0000E94CD337B018C01C401B30129962CAD5B
:1009E0003DAD4EAD5FAD29970E94CD33C901DA010F
:1009F0003C014D01C401B3012D962CAD3DAD4EAD72
:100A00005FAD2D970E94AE339B01AC018701FF249F
:100A1000EE242196ACACBDACCEACDFAC2197C601C8
:100A2000AA27BB2757016801A82AB92ACA2ADB2AA4
:100A3000A216B306C406D506E0F40894610871084E
:100A400081089108A20CB31CC41CD51CA214B304C9
:100A5000C404D50470F0A216B306C406D50648F443
:100A600008946108710881089108A20CB31CC41C89
:100A7000D51CA21AB30AC40AD50AC601B501299623
:100A80002CAD3DAD4EAD5FAD29970E94CD337B01BE
:100A90008C01C601B50129962CAD3DAD4EAD5FADC3
:100AA00029970E94CD33C901DA015C016D01C601AD
:100AB000B5012D962CAD3DAD4EAD5FAD2D970E948D
:100AC000AE339B01AC018701FF24EE2421968CAD4F
:100AD0009DADAEADBFAD2197A070B070E82AF92AE8
:100AE0000A2B1B2BE216F30604071507C0F4089423
:100AF000A108B108C108D108E20CF31C041D151DA2
:100B0000E214F3040405150550F0E216F306040799
:100B1000150728F40894A108B108C108D108D30129
:100B20009927882786017501E82AF92A0A2B1B2BA9
:100B30002596ECAEFDAE0EAF1FAF2597EBC421148A
:100B400031044104510471F461E070E080E090E010
:100B500020E030E040E050E00E94CD33C901DA01EE
:100B60001C012D0100E0201600E0300601E04006E7
:100B700000E0500688F41FEF2116310441045104AF
:100B800031F028F048E050E060E070E017C040E04D
:100B900050E060E070E012C020E0221620E0320653
:100BA00020E0420621E0520628F048E150E060E0F3
:100BB00070E004C040E150E060E070E0D201C101AB
:100BC000042E04C0B695A795979587950A94D2F7F9
:100BD00088599F4FDC012C91E0E2EE2EF12C012D83
:100BE000112DD801C701841B950BA60BB70B821BD7
:100BF0009109A109B1090097A105B10561F464014A
:100C00005301A218B308C408D50831E0632E712C33
:100C1000812C912C24C1E3968FAFE397082E04C05A
:100C2000220C331C441C551C0A94D2F7EE2DE81BF1
:100C3000640153010E2E04C0D694C794B794A794B0
:100C40000A94D2F7A4019301E3960FACE39704C092
:100C5000220F331F441F551F0A94D2F721966CAC04
:100C60007DAC8EAC9FAC21970E2E04C096948794D9
:100C7000779467940A94D2F784017301E22AF32AE5
:100C8000042B152BE9AEFAAE0BAF1CAF3201882452
:100C90009924920181012070307061960CAF1DAFD4
:100CA0002EAF3FAF6197C601B501A40193010E9429
:100CB000CD337B018C01C601B501A40193010E94D3
:100CC000CD33C901DA0165968CAF9DAFAEAFBFAF32
:100CD0006597BC01CD0161962CAD3DAD4EAD5FADCC
:100CE00061970E94AE339B01AC018701FF24EE2483
:100CF000A9ACBAACCBACDCACC601AA27BB275C0163
:100D00006D01AE28BF28C02AD12AA216B306C40698
:100D1000D50660F565966CAD7DAD8EAD9FAD6597E2
:100D2000615070408040904065966CAF7DAF8EAF53
:100D30009FAF6597A20CB31CC41CD51CA214B304AE
:100D4000C404D50498F0A216B306C406D50670F400
:100D5000615070408040904065966CAF7DAF8EAF23
:100D60009FAF6597A20CB31CC41CD51CA21AB30A72
:100D7000C40AD50AC601B501A40193010E94CD336E
:100D80007B018C01C601B501A40193010E94CD3302
:100D9000C901DA013C014D01C401B30161962CADDA
:100DA0003DAD4EAD5FAD61970E94AE339B01AC018E
:100DB0008701FF24EE2489AD9AADABADBCADA07028
:100DC000B07057016801A82AB92ACA2ADB2AA216DC
:100DD000B306C406D506E0F40894610871088108DA
:100DE0009108A20CB31CC41CD51CA214B304C404E7
:100DF000D50470F0A216B306C406D50648F40894CC
:100E00006108710881089108A20CB31CC41CD51C90
:100E100021968CAD9DADAEADBFAD2197E3960FACE5
:100E2000E39704C0880F991FAA1FBB1F0A94D2F72B
:100E300021968CAF9DAFAEAFBFAF2197A21AB30A78
:100E4000C40AD50A6596ECACFDAC0EAD1FAD659736
:100E5000D70199278827682A792A8A2A9B2A82011A
:100E60002227332769960CAF1DAF2EAF3FAF69978E
:100E7000A2019101407050706D962CAF3DAF4EAF06
:100E80005FAF6D97C601B50169962CAD3DAD4EAD16
:100E90005FAD69970E94CD337B018C01C601B5011E
:100EA00069962CAD3DAD4EAD5FAD69970E94CD33D7
:100EB000C901DA01A1968CAF9DAFAEAFBFAFA197CC
:100EC000BC01CD016D962CAD3DAD4EAD5FAD6D97C6
:100ED0000E94AE339B01AC018701FF24EE242196D2
:100EE000ACACBDACCEACDFAC2197C601AA27BB270A
:100EF00057016801A82AB92ACA2ADB2AA216B30612
:100F0000C406D50660F5A1966CAD7DAD8EAD9FADE6
:100F1000A1976150704080409040A1966CAF7DAF2A
:100F20008EAF9FAFA197A20CB31CC41CD51CA214FA
:100F3000B304C404D50498F0A216B306C406D506BB
:100F400070F46150704080409040A1966CAF7DAFCE
:100F50008EAF9FAFA197A20CB31CC41CD51CA21AC4
:100F6000B30AC40AD50AC601B50169962CAD3DADD8
:100F70004EAD5FAD69970E94CD337B018C01C601F8
:100F8000B50169962CAD3DAD4EAD5FAD69970E9440
:100F9000CD33C901DA015C016D01C601B5016D9661
:100FA0002CAD3DAD4EAD5FAD6D970E94AE339B0154
:100FB000AC018701FF24EE2421968CAD9DADAEAD32
:100FC000BFAD2197A070B070E82AF92A0A2B1B2B1D
:100FD000E216F30604071507C0F40894A108B10847
:100FE000C108D108E20CF31C041D151DE214F30422
:100FF0000405150550F0E216F3060407150728F45A
:101000000894A108B108C108D108A196ECACFDACC8
:101010000EAD1FADA197D7019927882796018501AD
:10102000082B192B2A2B3B2B25960CAF1DAF2EAF6F
:101030003FAF259772C26E147F048006910608F4B4
:101040005FC220E0E21620E0F20621E0020720E085
:10105000120788F43FEFE316F1040105110531F0A2
:1010600028F048E050E060E070E017C040E050E059
:1010700060E070E012C040E0E41640E0F40640E0BA
:10108000040741E0140728F048E150E060E070E018
:1010900004C040E150E060E070E0D801C701042ED8
:1010A00004C0B695A795979587950A94D2F7885965
:1010B0009F4FDC012C9130E2A32EB12CC12CD12CFE
:1010C000D601C501841B950BA60BB70B821B91099A
:1010D000A109B1090097A105B10599F4E614F70437
:1010E0000805190508F4FEC121966CAC7DAC8EACE8
:1010F0009FAC2197621473048404950408F0F2C134
:10110000FFC1E2968FAFE297082E04C0EE0CFF1CE1
:10111000001F111F0A94D2F76A2D681BD201C1016A
:10112000062E04C0B695A795979587950A94D2F791
:101130005C016D01AE28BF28C02AD12AADAABEAA83
:10114000CFAAD8AE72016101E2960FACE29704C05B
:10115000CC0CDD1CEE1CFF1C0A94D2F7C9AADAAA3B
:10116000EBAAFCAA64015301062E04C0D694C794CE
:10117000B794A7940A94D2F7D401C301E2960FACB6
:10118000E29704C0880F991FAA1FBB1F0A94D2F7C9
:101190002196ECACFDAC0EAD1FAD219704C01695A9
:1011A0000795F794E7946A95D2F737014801682AC2
:1011B000792A8A2A9B2A6DA67EA68FA698AAEDA8D0
:1011C000FEA80FA918AD3801882499249801870139
:1011D00020703070A5960CAF1DAF2EAF3FAFA59716
:1011E000C601B501A40193010E94CD337B018C019E
:1011F000C601B501A40193010E94CD33C901DA01F2
:101200001C012D01C201B101A5962CAD3DAD4EAD25
:101210005FADA5970E94AE339B01AC018701FF240F
:10122000EE24ADA4BEA4CFA4D8A8C601AA27BB278C
:1012300057016801A82AB92ACA2ADB2AA216B306CE
:10124000C406D50600F50894210831084108510864
:10125000EDA8FEA80FA918ADAE0CBF1CC01ED11E74
:10126000AE14BF04C006D10670F0A216B306C406C1
:10127000D50648F408942108310841085108AE0CFD
:10128000BF1CC01ED11EA21AB30AC40AD50AC601C9
:10129000B501A40193010E94CD337B018C01C601ED
:1012A000B501A40193010E94CD33C901DA013C01CB
:1012B0004D01C401B301A5962CAD3DAD4EAD5FAD62
:1012C000A5970E94AE339B01AC018701FF24EE2459
:1012D0008DA59EA5AFA5B8A9A070B07057016801F3
:1012E000A82AB92ACA2ADB2AA216B306C406D5063A
:1012F00000F5089461087108810891086DA97EA91C
:101300008FA998ADA60EB71EC81ED91EA616B70681
:10131000C806D90670F0A216B306C406D50648F46E
:1013200008946108710881089108A60EB71EC81EAE
:10133000D91ED601C501821B930BA40BB50B89A73F
:101340009AA7ABA7BCA7D1019927882764015301AD
:10135000A82AB92ACA2ADB2A2596ACAEBDAECEAEE3
:10136000DFAE2597860175012FEF3FEF40E050E09B
:10137000E222F32204231523A60166277727AD96E0
:101380004CAF5DAF6EAF7FAFAD97A9A8BAA8CBA8A1
:10139000DCA86FEF7FEF80E090E0A622B722C822A2
:1013A000D92289A99AA9ABA9BCA91D014424552415
:1013B000C801B701A60195010E94AE33A9966CAF92
:1013C0007DAF8EAF9FAFA997C801B701A201910170
:1013D0000E94AE333B014C01AD966CAD7DAD8EAD40
:1013E0009FADAD97A60195010E94AE337B018C01A4
:1013F000AD966CAD7DAD8EAD9FADAD97A201910167
:101400000E94AE335B016C01A8019701260D371DC8
:10141000481D591DA9966CAC7DAC8EAC9FACA997AC
:10142000C401AA27BB27280F391F4A1F5B1F2E158F
:101430003F054007510748F4E12CF12C61E0062FED
:10144000112DAE0CBF1CC01ED11ECA01AA27BB277E
:10145000BC01CD016A0D7B1D8C1D9D1D69A47AA464
:101460008BA49CA4661677068806990650F166152B
:1014700077058805990509F04DC0D9019927882776
:10148000A9962CAD3DAD4EAD5FADA99740705070A3
:10149000820F931FA41FB51F21962CAD3DAD4EADFD
:1014A0005FAD2197E2960FACE29704C0220F331F85
:1014B000441F551F0A94D2F7281739074A075B07BC
:1014C00048F525960CAD1DAD2EAD3FAD25970150CD
:1014D00010402040304025960CAF1DAF2EAF3FAFDF
:1014E000259718C066247724430121E030E040E0CE
:1014F00050E025962CAF3DAF4EAF5FAF25970DC0A6
:1015000066247724430125961CAE1DAE1EAE1FAE89
:10151000259703C0662477244301FE01B19688E035
:10152000DF011D928A95E9F72596ACACBDACCEAC37
:10153000DFAC2597A9A2BAA2CBA2DCA26DA27EA2A3
:101540008FA298A622962FAD22973AA14BA15CA11B
:10155000662D7EA1DFA098A5E196ECACFDAC0EADAA
:101560001FADE197E114F1040105110509F456C01E
:10157000219581E0121608F080E03195E1E0131624
:1015800008F0E0E0932E981A81E0391508F080E029
:10159000E82B4195F1E0141608F0F0E0A42EAE1A05
:1015A00081E04A1508F080E0F82B5195E1E015162E
:1015B00008F0E0E0B52EBF1A81E05B1508F080E08E
:1015C000E82B6195F1E0161608F0F0E0A62FAE1BAF
:1015D00081E06A1708F080E0F82B7195E1E01716BA
:1015E00008F0E0E0C72ECF1A81E07C1508F080E01B
:1015F000E82B8D2D8195F1E0181608F0F0E0D82E3B
:10160000DE1AE1E08D1508F0E0E0FE2B892F8195D0
:10161000392DA5016A2F7C2D982F9F1B8D2DCE581B
:10162000DF4FE2E10C940B34A7E7B0E0EAE1FBE026
:101630000C94EF33982E892E712E88E0FE0131969E
:10164000DF01682E1D926A94E9F729833A834B8360
:101650005C836D837E839F829887FE013996DF01CC
:101660001D928A95E9F7A986BA86CB86DC86ED8637
:10167000FE860F87188B8D819E81AF81B885B7FD5F
:1016800007C0E1961CAE1DAE1EAE1FAEE19764C052
:10169000219581E0121608F080E0319591E0131653
:1016A00008F090E0B32FB81B81E03B1708F080E012
:1016B000982B419531E0141608F030E0A42FA91BB7
:1016C00081E04A1708F080E0382B519591E015161B
:1016D00008F090E0F52FF31B81E05F1708F080E041
:1016E000982B619531E0161608F030E0E62FE91BE3
:1016F00081E06E1708F080E0382B719541E01716F5
:1017000008F040E0572F531B81E0751708F080E088
:10171000482B892D819591E0181608F090E0682EED
:10172000641A462D31E0861508F030E0932B882DA1
:101730008195891B2983BA83AB83FC83ED835E8308
:101740004F8388872FEF3FEF4FEF5FEFE1962CAF8E
:101750003DAF4EAF5FAFE1978D859E85AF85B88970
:10176000B7FF5AC0A19481E01A1408F080E0B19448
:1017700091E01B1408F090E06B2D681B81E0B61619
:1017800008F080E0982BC19421E01C1408F020E0C0
:101790005C2D591B81E0C51608F080E0282BD19400
:1017A00091E01D1408F090E04D2D421B81E0D4160D
:1017B00008F080E0982BE19421E01E1408F020E06E
:1017C0003E2D391B81E0E31608F080E0282BF194D0
:1017D00091E01F1408F090E07F2D721B272F81E00D
:1017E000F71608F080E0982B019511E0101608F02C
:1017F00010E0802F891B982F81E0091708F080E006
:10180000182B872D8195811BA9866A875B874C875A
:101810003D872E879F87888B99812A813B814C81C8
:101820005D816E817F81A885B9851A850B85FC84D1
:10183000ED84DE84CF84B88888E0E9E18E2E912C97
:101840008C0E9D1EF401682E11926A94E9F7998F0F
:101850002A8F3B8F4C8F5D8F6E8F7F8FA8A39E0149
:101860002F5D3F4FF90111928A95E9F7B9A31AA3A9
:101870000BA3FCA2EDA2DEA2CFA2B8A629A03AA09B
:101880004BA05CA0ADA0BEA0CFA0D8A4498D5A8D1E
:101890006B8D7C8DE5964FAFE597E6965FAFE6974B
:1018A000E7966FAFE797E8967FAFE897E8966CAC5E
:1018B0007DAC8EAC9FACE8972D966CAE7DAE8EAEB7
:1018C0009FAE2D978D8D9E8D2F8D38A13C014901A6
:1018D00061966CAE7DAE8EAE9FAE6197A114B104E1
:1018E000C104D10409F028C362147304840495046C
:1018F00008F00EC100E0201600E0300601E04006CE
:1019000000E0500688F41FEF211631044104510411
:1019100039F030F088E0E82EF12C012D112D18C09F
:10192000EE24FF24870114C020E0221620E03206B6
:1019300020E0420621E0520630F0B8E1EB2EF12C17
:10194000012D112D05C0A0E1EA2EF12C012D112D44
:10195000D201C1010E2C04C0B695A7959795879525
:101960000A94D2F788599F4FDC012C9180E290E0D5
:10197000A0E0B0E08E199F09A00BB10B5C016D01D6
:10198000A21AB108C108D1086596ACAEBDAECEAE04
:10199000DFAE6597A114B104C104D10409F445C0B8
:1019A00062966FAD6297062E04C0220C331C441C55
:1019B000551C0A94D2F7A4019301062E04C0220FED
:1019C000331F441F551F0A94D2F780E290E08A1912
:1019D0009B09E896CCACDDACEEACFFACE89704C05C
:1019E000F694E794D794C7948A95D2F78701760145
:1019F000E22AF32A042B152B6196ECAEFDAE0EAF56
:101A00001FAF6197E8960CAD1DAD2EAD3FADE897C9
:101A100004C0000F111F221F331F6A95D2F72D96A5
:101A20000CAF1DAF2EAF3FAF2D9732018824992404
:101A3000A20191014070507069962CAF3DAF4EAF3E
:101A40005FAF699761966CAD7DAD8EAD9FAD6197CF
:101A5000A40193010E94CD337B018C0161966CAD92
:101A60007DAD8EAD9FAD6197A40193010E94CD33F2
:101A7000CA01B90169962CAD3DAD4EAD5FAD699718
:101A80000E94AE339B01AC018701FF24EE242D960A
:101A9000ACACBDACCEACDFAC2D97C601AA27BB2742
:101AA00057016801A82AB92ACA2ADB2AA216B30656
:101AB000C406D50690F4A20CB31CC41CD51CA214F9
:101AC000B304C404D50448F0A216B306C406D50670
:101AD00020F4A20CB31CC41CD51CA21AB30AC40A5D
:101AE000D50AC601B501A40193010E94CD337B0143
:101AF0008C01C601B501A40193010E94CD33CA0136
:101B0000B90169962CAD3DAD4EAD5FAD6997C8C1C9
:101B1000211431044104510471F461E070E080E06B
:101B200090E020E030E040E050E00E94CD33C90179
:101B3000DA011C012D0100E0201600E0300601E072
:101B4000400600E0500688F41FEF211631044104DE
:101B5000510439F030F068E0E62EF12C012D112D02
:101B600018C0EE24FF24870114C020E0221620E0D4
:101B7000320620E0420621E0520630F058E1E52E20
:101B8000F12C012D112D05C040E1E42EF12C012D89
:101B9000112DD201C1010E2C04C0B695A7959795C1
:101BA00087950A94D2F788599F4FDC012C9130E237
:101BB000A32EB12CC12CD12CD601C5018E199F09A1
:101BC000A00BB10B7C018D01E21AF108010911098A
:101BD0006596ECAEFDAE0EAF1FAF6597E114F10454
:101BE0000105110539F464015301A218B308C408B2
:101BF000D508ECC06296FFAC6297E496FFAEE4971E
:101C00000F2C04C0220C331C441C551C0A94D2F720
:101C10008A2D8F1964015301082E04C0D694C794ED
:101C2000B794A7940A94D2F7A401930104C0220F99
:101C3000331F441F551FFA94D2F7E8966CAC7DAC65
:101C40008EAC9FACE89704C0969487947794679481
:101C50008A95D2F784017301E22AF32A042B152B0B
:101C60002996ECAEFDAE0EAF1FAF29973201882446
:101C7000992492018101207030706D960CAF1DAFD8
:101C80002EAF3FAF6D97C601B501A40193010E942D
:101C9000CD337B018C01C601B501A40193010E94E3
:101CA000CD33CA01B9016D962CAD3DAD4EAD5FADE2
:101CB0006D970E94AE339B01AC018701FF24EE2497
:101CC0002996ACACBDACCEACDFAC2997C601AA2737
:101CD000BB275C016D01AE28BF28C02AD12AA216FD
:101CE000B306C406D50690F4A20CB31CC41CD51CC4
:101CF000A214B304C404D50448F0A216B306C40663
:101D0000D50620F4A20CB31CC41CD51CA21AB30A1D
:101D1000C40AD50AC601B501A40193010E94CD33BE
:101D20007B018C01C601B501A40193010E94CD3352
:101D3000CA01B9016D962CAD3DAD4EAD5FAD6D974D
:101D40000E94AE339B01AC018701FF24EE2429964B
:101D50008CAD9DADAEADBFAD2997A070B0705701F1
:101D60006801A82AB92ACA2ADB2AA216B306C40621
:101D7000D50690F4A20CB31CC41CD51CA214B30449
:101D8000C404D50448F0A216B306C406D50620F450
:101D9000A20CB31CC41CD51CE896ECACFDAC0EAD7B
:101DA0001FADE897E4960FACE49704C0EE0CFF1C5F
:101DB000001F111F0A94D2F72D96ECAEFDAE0EAFA8
:101DC0001FAF2D97A21AB30AC40AD50A320188247C
:101DD00099249201810120703070A1960CAF1DAF43
:101DE0002EAF3FAFA197C601B501A40193010E9498
:101DF000CD337B018C01C601B501A40193010E9482
:101E0000CD33CA01B901A1962CAD3DAD4EAD5FAD4C
:101E1000A1970E94AE339B01AC018701FF24EE2401
:101E20002D96ACACBDACCEACDFAC2D97C601AA27CD
:101E3000BB2757016801A82AB92ACA2ADB2AA21699
:101E4000B306C406D50690F4A20CB31CC41CD51C62
:101E5000A214B304C404D50448F0A216B306C40601
:101E6000D50620F4A20CB31CC41CD51CA21AB30ABC
:101E7000C40AD50AC601B501A40193010E94CD335D
:101E80007B018C01C601B501A40193010E94CD33F1
:101E9000CA01B901A1962CAD3DAD4EAD5FADA19784
:101EA0000E94AE339B01AC018701FF24EE242D96E6
:101EB0008CAD9DADAEADBFAD2D97A070B070E82AD2
:101EC000F92A0A2B1B2BE216F3060407150790F4D8
:101ED000E20CF31C041D151DE214F30404051505A2
:101EE00048F0E216F3060407150720F4E20CF31C91
:101EF000041D151DE21AF30A040B150BD801C701C6
:101F000062960FAC629704C0B695A7959795879592
:101F10000A94D2F789A79AA7ABA7BCA71DA61EA6AD
:101F20001FA618AA898B8AA58A8B8BA58B8B8CA55B
:101F30008C8B8DA58D8B2FC36A147B048C049D0420
:101F400048F4498B5A8B6B8B7C8B8D8B9E8B2F8BA4
:101F5000388F27C300E0A01600E0B00601E0C006FD
:101F600000E0D00688F41FEFA116B104C104D1042B
:101F700039F030F028E0E22EF12C012D112D18C09F
:101F8000EE24FF24870114C020E0A21620E0B20650
:101F900020E0C20621E0D20630F098E1E92EF12CD3
:101FA000012D112D05C080E1E82EF12C012D112D00
:101FB000D601C5010E2C04C0B695A79597958795B7
:101FC0000A94D2F788599F4FDC012C9180E290E06F
:101FD000A0E0B0E08E199F09A00BB10B821B910904
:101FE000A109B1090097A105B10509F059C0A614CE
:101FF000B704C804D90470F0E896ECACFDAC0EADA3
:102000001FADE897E214F3040405150518F4D80190
:10201000C7012FC0E8968CAD9DADAEADBFADE897C2
:1020200082199309A409B509A40193012A193B094E
:102030004C095D09AA24BB246501E8966CAC7DAC13
:102040008EAC9FACE897681679068A069B0628F442
:1020500011E0A12EB12CC12CD12C79018A01EA18F2
:10206000FB080C091D096196ECAEFDAE0EAF1FAF6B
:10207000619789A79AA7ABA7BCA761960CAD1DADC8
:102080002EAD3FAD61970DA71EA72FA738AB898B4B
:102090008AA58A8B8BA58B8B8CA58C8B0D8B7BC299
:1020A000E3968FAFE397A6019501082E04C0220F97
:1020B000331F441F551F0A94D2F710E2181BE296F3
:1020C0001FAFE297D201C101012E04C0B695A795BA
:1020D000979587950A94D2F75C016D01A22AB32ADD
:1020E000C42AD52A2596ACAEBDAECEAEDFAE2597BE
:1020F00072016101E3960FACE39704C0CC0CDD1CC8
:10210000EE1CFF1C0A94D2F72196CCAEDDAEEEAEEB
:10211000FFAE219764015301012E04C0D694C794E9
:10212000B794A7940A94D2F7A4019301E3960FAC55
:10213000E39704C0220F331F441F551F0A94D2F7A0
:10214000E8968CAD9DADAEADBFADE89704C0B69539
:10215000A795979587951A95D2F77C018D01E22A6C
:10216000F32A042B152BE9AEFAAE0BAF1CAFE896A1
:102170000CAD1DAD2EAD3FADE897E3960FACE397E8
:1021800004C0000F111F221F331F0A94D2F70DAB9A
:102190001EAB2FAB38AF25962CAD3DAD4EAD5FAD30
:1021A00025973A018824992440705070A5962CAF49
:1021B0003DAF4EAF5FAFA597C601B501A401930136
:1021C0000E94CD337B018C01C601B501A4019301AE
:1021D0000E94CD33C901DA011C012D01C201B101F8
:1021E000A5962CAD3DAD4EAD5FADA5970E94AE332B
:1021F0009B01AC018701FF24EE24A9ACBAACCBACA7
:10220000DCACC601AA27BB2757016801A82AB92A56
:10221000CA2ADB2AA216B306C406D50610F508940E
:1022200021083108410851082596ECACFDAC0EADF3
:102230001FAD2597AE0CBF1CC01ED11EAE14BF042F
:10224000C006D10670F0A216B306C406D50648F43F
:1022500008942108310841085108AE0CBF1CC01E6B
:10226000D11EA21AB30AC40AD50AC601B501A40137
:1022700093010E94CD337B018C01C601B501A401FD
:1022800093010E94CD33C901DA013C014D01C40123
:10229000B301A5962CAD3DAD4EAD5FADA5970E94A7
:1022A000AE339B01AC018701FF24EE2489AD9AADCA
:1022B000ABADBCADA070B07057016801A82AB92AB7
:1022C000CA2ADB2AA216B306C406D50610F508945E
:1022D000610871088108910825966CAD7DAD8EADC1
:1022E0009FAD2597A60EB71EC81ED91EA616B70607
:1022F000C806D90670F0A216B306C406D50648F47F
:1023000008946108710881089108A60EB71EC81EBE
:10231000D91ED601C501821B930BA40BB50B89AB4B
:102320009AABABABBCABD101992788278401730171
:10233000E82AF92A0A2B1B2B8FEFA82E8FEFB82E35
:10234000C12CD12CAE20BF20C022D1227801002781
:10235000112721966CAC7DAC8EAC9FAC21972FEFF2
:102360003FEF40E050E062227322842295222196C2
:102370006CAD7DAD8EAD9FAD2197AC016627772703
:10238000AD964CAF5DAF6EAF7FAFAD97C601B501F7
:10239000A40193010E94AE33A9966CAF7DAF8EAFBE
:1023A0009FAFA997C601B501AD962CAD3DAD4EAD21
:1023B0005FADAD970E94AE331B012C01C801B70180
:1023C000A40193010E94AE335B016C01C801B70107
:1023D000AD962CAD3DAD4EAD5FADAD970E94AE3329
:1023E0007B018C01A6019501220D331D441D551D55
:1023F000A9966CAC7DAC8EAC9FACA997C401AA2702
:10240000BB27280F391F4A1F5B1F2A153B054C05A8
:102410005D0548F4812C912CE1E0AE2EB12CE80C46
:10242000F91C0A1D1B1DCA01AA27BB2757016801F9
:10243000A80EB91ECA1EDB1EA90133272227A996A2
:102440008CAD9DADAEADBFADA997A070B070280F9B
:10245000391F4A1F5B1FE9A8FAA80BA91CA9EA1497
:10246000FB040C051D0570F0AE14BF04C006D106B8
:1024700089F56DA97EA98FA998AD621773078407A6
:10248000950740F5DA01C90121966CAC7DAC8EACA4
:102490009FAC219786199709A809B9092596ECAC34
:1024A000FDAC0EAD1FAD2597AE18BF08C00AD10A0E
:1024B000EE24FF248701281739074A075B0728F411
:1024C00021E0E22EF12C012D112DAE18BF08C00A1B
:1024D000D10A02C0DA01C9016DA87EA88FA898AC04
:1024E000681A790A8A0A9B0A09A91AA92BA93CA980
:1024F0000A191B092C093D095801690122243324BA
:1025000021012DA93EA94FA958AD2615370548052B
:10251000590528F481E0282E312C412C512C8601BC
:102520007501E218F30804091509A8019701E2965C
:102530000FACE29704C0220F331F441F551F0A94AB
:10254000D2F7D401C301E3960FACE39704C0B6956C
:10255000A795979587950A94D2F7282B392B4A2B64
:102560005B2B29A73AA74BA75CA7E3960FACE39791
:1025700004C016950795F794E7940A94D2F7EDA650
:10258000FEA60FA718AB298B8AA58A8B8BA58B8BF0
:102590008CA58C8BED8A8EA58E8B8FA58F8B88A9B1
:1025A000888FE1964CAD5DAD6EAD7FADE197411585
:1025B00051056105710509F467C089892A893B893C
:1025C0004C895D89AE89BF89188DF82FF19591E00E
:1025D0001F1608F090E0822F819521E0181608F070
:1025E00020E0E82FE91B91E08E1708F090E0292BFE
:1025F000832F819531E0181608F030E0782F721B98
:1026000091E0871708F090E0392B842F819521E025
:10261000181608F020E0682F631B91E0861708F079
:1026200090E0292B852F819531E0181608F030E0D5
:10263000582F521B91E0851708F090E0392B8A2F14
:10264000819521E0181608F020E0482F431B91E007
:10265000841708F090E0292B8B2F819591E01816B4
:1026600008F090E0382F321B21E0831708F020E0BB
:10267000922B812F8195891BF98BEA8B7B8B6C8B3D
:102680005D8B4E8B3F8B888F29893A894B895C897A
:102690006D897E898F89988DC958DF4FE2E10C944E
:1026A0000B34A0E0B0E0E7E5F3E10C94EF33DC019C
:1026B0002B01FA019C91923008F439C1EB01888119
:1026C000823008F433C1943069F4843009F02FC1AA
:1026D00011969C9111978981981709F428C1A0E659
:1026E000B0E025C1843009F421C18230A9F49230D0
:1026F00009F01DC19A01AD0188E0EA010990AE011F
:10270000E90109929E018150C1F7E2018981119688
:102710009C918923818308C1923009F407C11296E4
:102720002D903C901397EB018A819B811496AD907C
:10273000BD90CD90DC901797EC80FD800E811F81BD
:102740009101281B390BB90137FF04C06627772791
:10275000621B730B603271050CF061C01216130618
:102760006CF537014801062E04C09694879477943F
:1027700067940A94D2F721E030E040E050E004C0D2
:10278000220F331F441F551F6A95D2F72150304046
:10279000404050402E213F21402351232115310537
:1027A0004105510521F021E030E040E050E07901A1
:1027B0008A01E628F728082919293CC0232BD1F1E2
:1027C000260E371E35014601062E04C096948794C6
:1027D000779467940A94D2F721E030E040E050E02B
:1027E00004C0220F331F441F551F6A95D2F7215092
:1027F0003040404050402A213B214C215D21211591
:1028000031054105510521F021E030E040E050E084
:1028100059016A01A628B728C828D9280BC08215F3
:1028200093052CF01C01AA24BB24650103C0EE24EF
:10283000FF24870111969C91D20111968C919817D3
:1028400009F445C0992339F0A80197012A193B09D9
:102850004C095D0906C0A60195012E193F09400BE0
:10286000510B57FD08C011823382228224833583A5
:10287000468357831DC081E081833382228288276B
:102880009927DC01821B930BA40BB50B84839583E2
:10289000A683B7830DC0220F331F441F551F248307
:1028A0003583468357838281938101979383828303
:1028B0002481358146815781DA01C9010197A10937
:1028C000B1098F5F9F4FAF4FBF4328F30BC0918378
:1028D00033822282EA0CFB1C0C1D1D1DE482F58252
:1028E0000683178383E08083248135814681578165
:1028F00057FF1AC0C901AA2797FDA095BA2F81706A
:102900009070A070B0705695479537952795822B9B
:10291000932BA42BB52B84839583A683B7838281C5
:102920009381019693838283DF0101C0D201CD019F
:10293000CDB7DEB7E2E10C940B34A0E2B0E0E3EAFD
:10294000F4E10C94FB3369837A838B839C832D831E
:102950003E834F835887E9E0EE2EF12CEC0EFD1EEE
:10296000CE010196B7010E94FF198E010F5E1F4F25
:10297000CE010596B8010E94FF198A8991E0892746
:102980008A8BC701B801AE01475E5F4F0E945113A9
:102990000E942A19A096E6E00C941734A0E2B0E059
:1029A000E4EDF4E10C94FB3369837A838B839C839D
:1029B0002D833E834F835887F9E0EF2EF12CEC0EE8
:1029C000FD1ECE010196B7010E94FF198E010F5E18
:1029D0001F4FCE010596B8010E94FF19C701B8012B
:1029E000AE01475E5F4F0E9451130E942A19A096C4
:1029F000E6E00C941734A0E2B0E0E1E0F5E10C94DD
:102A0000EF3369837A838B839C832D833E834F834B
:102A10005887CE010196BE01675F7F4F0E94FF1964
:102A2000CE010596BE016F5E7F4F0E94FF1999850A
:102A3000923088F089898230C8F0943019F482305D
:102A400051F404C0843029F4923081F480E690E09F
:102A5000C6C0923049F420E09A858A89981321E013
:102A60002A87CE010996BBC0823049F420E09A85BE
:102A70008A89981321E02A8BCE014196B0C02D841B
:102A80003E844F8458886D887E888F88988CEE2489
:102A9000FF248701AA24BB24650140E050E060E0E8
:102AA00070E0E0E0F0E0C10181709070892BE9F006
:102AB000E60CF71C081D191D9A01AB012A0D3B1DE0
:102AC0004C1D5D1D80E090E0A0E0B0E0E614F7044E
:102AD0000805190520F481E090E0A0E0B0E0BA011B
:102AE000A901480F591F6A1F7B1FAA0CBB1CCC1CD5
:102AF000DD1C97FE08C081E090E0A0E0B0E0A82ACD
:102B0000B92ACA2ADB2A3196E032F10549F0660C6F
:102B1000771C881C991C5694479437942794C3CFEC
:102B2000FA85EA892B893C898B859C85280F391F7A
:102B30002E5F3F4F17C0CA0181709070892B61F0E2
:102B400016950795F794E79480E090E0A0E0B0E850
:102B5000E82AF92A0A2B1B2B7695679557954795F6
:102B60002F5F3F4F77FDE7CF0CC0440F551F661F07
:102B7000771F17FD4160EE0CFF1C001F111F215035
:102B80003040403090E0590790E0690790E47907C1
:102B900060F32B8F3C8FDB01CA018F779070A070A0
:102BA000B07080349105A105B10561F447FD0AC0FC
:102BB000E114F1040105110529F0405C5F4F6F4FEE
:102BC0007F4F40781A8EFE1711F081E08A8F4D8F6B
:102BD0005E8F6F8F78A383E0898FCE0149960E9424
:102BE0002A19A096E2E10C940B34A8E1B0E0EBEFD7
:102BF000F5E10C94F73369837A838B839C832D836F
:102C00003E834F835887B9E0EB2EF12CEC0EFD1E6E
:102C1000CE010196B7010E94FF198E010F5E1F4F72
:102C2000CE010596B8010E94FF192985223008F4CB
:102C30007EC03989323010F4B8017CC08A859A8907
:102C400089278A87243011F0223031F4231709F0C4
:102C50006EC060E670E06EC0343039F41D861E86AA
:102C60001F86188A1C861B8604C0323021F484E03B
:102C70008987B7015FC02B853C858B899C89281B80
:102C8000390B3C872B87ED84FE840F851889AD882E
:102C9000BE88CF88D88CEA14FB040C051D0540F4CF
:102CA000EE0CFF1C001F111F215030403C872B876A
:102CB00020E030E040E050E080E090E0A0E0B0E4D0
:102CC00060E070E0EA14FB040C051D0540F0282BC1
:102CD000392B4A2B5B2BEA18FB080C091D09B6950A
:102CE000A79597958795EE0CFF1C001F111F6F5F2E
:102CF0007F4F6F31710531F7DA01C9018F7790701D
:102D0000A070B07080349105A105B10561F427FD74
:102D10000AC0E114F1040105110529F0205C3F4FC0
:102D20004F4F5F4F20782D873E874F87588BBE01CE
:102D3000675F7F4FCB010E942A196896EAE00C94E6
:102D40001334A8E1B0E0E7EAF6E10C94FB336983C1
:102D50007A838B839C832D833E834F83588789E0BE
:102D6000E82EF12CEC0EFD1ECE010196B7010E945B
:102D7000FF198E010F5E1F4FCE010596B8010E940C
:102D8000FF198985823040F08989823028F0C70197
:102D9000B8010E94771A01C08FEF6896E6E00C94A4
:102DA0001734A8E1B0E0E7EDF6E10C94FB3369835A
:102DB0007A838B839C832D833E834F83588789E05E
:102DC000E82EF12CEC0EFD1ECE010196B7010E94FB
:102DD000FF198E010F5E1F4FCE010596B8010E94AC
:102DE000FF198985823040F08989823028F0C70137
:102DF000B8010E94771A01C08FEF6896E6E00C9444
:102E00001734A8E1B0E0E7E0F7E10C94FB33698305
:102E10007A838B839C832D833E834F83588789E0FD
:102E2000E82EF12CEC0EFD1ECE010196B7010E949A
:102E3000FF198E010F5E1F4FCE010596B8010E944B
:102E4000FF198985823040F08989823028F0C701D6
:102E5000B8010E94771A01C081E06896E6E00C9400
:102E60001734A8E0B0E0E7E3F7E10C94F8339B01F6
:102E7000AC0183E08983DA01C9018827B7FD839516
:102E80009927AA27BB27B82E2115310541055105E1
:102E900019F482E089833AC08823A9F0203080E0C9
:102EA000380780E0480780E8580729F460E070E0C0
:102EB00080E09FEC30C0EE24FF248701E21AF30A81
:102EC000040B150B02C079018A018EE1C82ED12CAA
:102ED000DC82CB82ED82FE820F831887C801B701A6
:102EE0000E94DB1801971816190684F4082E04C0F6
:102EF000EE0CFF1C001F111F0A94D2F7ED82FE8218
:102F00000F831887C81AD90ADC82CB82BA82CE0115
:102F100001960E942A192896E9E00C941434ACE03A
:102F2000B0E0E5E9F7E10C94FF3369837A838B83A2
:102F30009C83CE010196BE016B5F7F4F0E94FF19FB
:102F40008D81823061F1823050F1843021F48E81A4
:102F5000882351F12EC02F81388537FD20C06E8126
:102F60002F3131051CF06623F9F023C08EE190E08B
:102F7000821B930B29853A854B855C8504C0569549
:102F80004795379527958A95D2F76623B1F05095E6
:102F90004095309521953F4F4F4F5F4F0EC020E039
:102FA00030E040E050E009C02FEF3FEF4FEF5FE728
:102FB00004C020E030E040E050E8B901CA012C969E
:102FC000E2E00C941B34A8E0B0E0E9EEF7E10C94E9
:102FD000F7337B018C01611571058105910519F4A9
:102FE00082E0898360C083E089838EE1C82ED12C82
:102FF000DC82CB82ED82FE820F831887C801B70185
:103000000E94DB18FC013197F7FF3BC022273327D2
:103010002E1B3F0B57016801022E04C0D694C794A3
:10302000B794A7940A94D2F740E050E060E070E0D3
:1030300081E090E0A0E0B0E004C0880F991FAA1FD3
:10304000BB1F2A95D2F70197A109B1098E219F21B3
:10305000A023B1230097A105B10521F041E050E084
:1030600060E070E04A295B296C297D294D835E83ED
:103070006F8378878EE190E08E1B9F0B9C838B8300
:1030800012C0309781F00E2E04C0EE0CFF1C001F02
:10309000111F0A94D2F7ED82FE820F831887CE1A91
:1030A000DF0ADC82CB821A82CE0101960E942A19A5
:1030B0002896EAE00C941334EF92FF920F93DF937B
:1030C000CF93CDB7DEB760970FB6F894DEBF0FBED3
:1030D000CDBFA82F002309F461C07E010894E11C34
:1030E000F11C88E0F70111928A95E9F729833A8368
:1030F0004B835C836D837E83AF83988780E2801BE4
:10310000E82FFF27E7FDF0954D815E816F8178857F
:10311000181684F01D861E861F86188A8827992710
:103120008E1B9F0B04C076956795579547958A959A
:10313000D2F728C0202F332727FD3095DB01CA01A5
:10314000022E04C0B695A795979587950A94D2F755
:103150008D879E87AF87B88B04C0440F551F661FAD
:10316000771FEA95D2F789819A81AB81BC8104C02F
:10317000B695A795979587952A95D2F7482B592B01
:103180006A2B7B2B49875A876B877C8729853A85F1
:103190004B855C856D857E85AF8598898A2F609685
:1031A0000FB6F894DEBF0FBECDBFCF91DF910F9168
:1031B000FF90EF900895EF92FF920F931F937B0182
:1031C0008C0180E0E81680E0F80681E0080780E0E6
:1031D000180788F48FEFE816F1040105110531F0A6
:1031E00028F088E090E0A0E0B0E017C080E090E038
:1031F000A0E0B0E012C080E0E81680E0F80680E0D1
:10320000080781E0180728F088E190E0A0E0B0E02E
:1032100004C080E190E0A0E0B0E020E230E040E0D7
:1032200050E0281B390B4A0B5B0B04C01695079521
:10323000F794E7948A95D2F7F701E859FF4F808118
:10324000281B310941095109C9011F910F91FF90B4
:10325000EF900895DF92EF92FF920F931F93FC017E
:10326000E480F58006811781D1808081823048F426
:1032700080E090E0A0E1B0E0E82AF92A0A2B1B2BBD
:10328000A5C0843009F49FC0823021F4EE24FF24CD
:10329000870105C0E114F1040105110519F4E0E00E
:1032A000F0E096C0628173819FEF623879070CF07D
:1032B0005BC022E83FEF261B370B2A3131052CF08B
:1032C00020E030E040E050E02AC0B801A701022E23
:1032D00004C076956795579547950A94D2F781E093
:1032E00090E0A0E0B0E004C0880F991FAA1FBB1FA8
:1032F0002A95D2F70197A109B1098E219F21A02318
:10330000B1230097A105B10521F081E090E0A0E094
:10331000B0E09A01AB01282B392B4A2B5B2BDA0149
:10332000C9018F779070A070B07080349105A105AD
:10333000B10539F427FF09C0205C3F4F4F4F5F4F65
:1033400004C0215C3F4F4F4F5F4FE0E0F0E0203082
:10335000A0E03A07A0E04A07A0E45A0710F0E1E035
:10336000F0E079018A0127C06038710564F5FB013E
:10337000E158FF4FD801C7018F779070A070B070EF
:1033800080349105A105B10539F4E7FE0DC080E454
:1033900090E0A0E0B0E004C08FE390E0A0E0B0E0F7
:1033A000E80EF91E0A1F1B1F17FF05C0169507958B
:1033B000F794E794319687E016950795F794E7948C
:1033C0008A95D1F705C0EE24FF248701EFEFF0E0E6
:1033D0006E2F679566276795902F9F77D794DD248A
:1033E000D7948E2F8695492F462B582F5D29B701EC
:1033F000CA011F910F91FF90EF90DF900895FC019B
:10340000DB01408151812281622F6F7770E0221FA2
:103410002227221F9381892F880F822B282F30E0AB
:10342000991F9927991F11969C9311972115310582
:10343000A9F5411551056105710511F482E037C008
:1034400082E89FEF13969C938E9312979A01AB019B
:1034500067E0220F331F441F551F6A95D1F783E0A1
:103460008C930DC0220F331F441F551F12968D9150
:103470009C911397019713969C938E9312972030EB
:1034800080E0380780E0480780E4580758F3149636
:103490002D933D934D935C93179708952F3F3105DE
:1034A00079F4411551056105710519F484E08C9397
:1034B000089564FF03C081E08C9312C01C9210C079
:1034C0002F57304013963C932E93129783E08C93A2
:1034D00087E0440F551F661F771F8A95D1F77064E8
:1034E00014964D935D936D937C93179708951F9356
:1034F000DC01FB019C91923008F447C0808182304E
:1035000008F443C0943051F411961C91843099F51D
:103510008181682F70E0611B71093FC0843021F008
:10352000923031F48230B9F18181882389F12DC044
:1035300011961C9111978230F1F081811817D9F4FE
:1035400012962D913C911397828193818217930754
:1035500094F028173907BCF014968D919D910D9029
:10356000BC91A02D248135814681578128173907C8
:103570004A075B0718F4112341F00AC0821793072A
:10358000A407B50740F4112319F061E070E005C00D
:103590006FEF7FEF02C060E070E0CB011F910895F4
:1035A000DF93CF9300D000D000D0CDB7DEB79C839F
:1035B0008B8381E08A838B819C81009709F4F8C01A
:1035C0001982F1C08981282F30E0C901880F991F25
:1035D000280F391F8B819C81FC01E20FF31F818131
:1035E000803509F0DDC0A5E5B0E0E5E5F0E08081DB
:1035F0008E7F8C93A5E5B0E0E5E5F0E080818D7FDE
:103600008C93A5E5B0E0E5E5F0E080818B7F8C93BD
:10361000A5E5B0E0E5E5F0E08081877F8C93A4E547
:10362000B0E0E4E5F0E080818F7B8C93AFE5B0E023
:10363000EFE5F0E0808180688C938981282F30E06D
:10364000C901880F991F280F391F8B819C81FC01AC
:10365000E20FF31F8081282F30E03E832D838D8180
:103660009E818130910581F12D813E81223031058D
:1036700009F456C08D819E81009709F08FC0ABE59B
:10368000B0E0EBE5F0E0808180648C93A5E5B0E0EC
:10369000E5E5F0E040818981282F30E0C901880FFD
:1036A000991F280F391F8B819C81FC01E20FF31FAA
:1036B0008281842B8C93AAE5B0E0EAE5F0E080817A
:1036C00080648C931A826CC0ABE5B0E0EBE5F0E06F
:1036D000808180688C93A5E5B0E0E5E5F0E080812D
:1036E000482F8981282F30E0C901880F991F280FA2
:1036F000391F8B819C81FC01E20FF31F8281882F8F
:1037000090E0880F991F880F991F842B8C93AAE54E
:10371000B0E0EAE5F0E0808180688C931A8240C0D6
:10372000ABE5B0E0EBE5F0E0808180628C938981CD
:10373000282F30E0C901880F991F280F391F8B816E
:103740009C81FC01E20FF31F8281823039F4E4E5B1
:10375000F0E0A4E5B0E08C91808317C08981282F28
:1037600030E0C901880F991F280F391F8B819C8178
:10377000FC01E20FF31F8281833039F4A4E5B0E04D
:10378000E4E5F0E0808180648C93AAE5B0E0EAE5AE
:10379000F0E0808180628C931A8202C087E08A8385
:1037A00089818F5F89838981833008F40BCF02C0C0
:1037B00082E08A838A8126960FB6F894DEBF0FBE18
:1037C000CDBFCF91DF910895DF93CF9300D000D08C
:1037D00000D0CDB7DEB79B838A836C8381E0898379
:1037E0008A819B81009709F49FC0AFE5B0E0EFE5C7
:1037F000F0E0808180688C93EA81FB818081282FB2
:1038000030E03E832D838D819E818130910589F149
:103810002D813E812230310509F458C08D819E8171
:10382000009709F07EC0A5E5B0E0E5E5F0E0808115
:103830008E7F8C93A5E5B0E0E5E5F0E080818D7F9B
:103840008C93ABE5B0E0EBE5F0E0808180648C9395
:10385000A5E5B0E0E5E5F0E090818C81892B8C93C3
:10386000AAE5B0E0EAE5F0E0808180648C931982FB
:103870005DC0A5E5B0E0E5E5F0E080818B7F8C934D
:10388000A5E5B0E0E5E5F0E08081877F8C93ABE5CE
:10389000B0E0EBE5F0E0808180688C93A5E5B0E0D6
:1038A000E5E5F0E08081282F8C81882F90E0880F5B
:1038B000991F880F991F822B8C93AAE5B0E0EAE547
:1038C000F0E0808180688C93198230C0A4E5B0E07C
:1038D000E4E5F0E080818F7B8C93ABE5B0E0EBE535
:1038E000F0E0808180628C93A4E5B0E0E4E5F0E054
:1038F0008081282F8C81882F90E0002496958795D1
:103900000794969587950794982F802D822B8C93FA
:10391000AAE5B0E0EAE5F0E0808180628C9319824C
:1039200005C087E0898302C082E089838981269669
:103930000FB6F894DEBF0FBECDBFCF91DF910895D3
:10394000DF93CF9300D000D00F92CDB7DEB79B832B
:103950008A8381E089838A819B81009709F457C01B
:10396000EA81FB818081282F30E03D832C838C818C
:103970009D818130910509F12C813D8122303105F5
:1039800099F18C819D81009709F03EC0ABE5B0E0D4
:10399000EBE5F0E080818F7B8C93A5E5B0E0E5E579
:1039A000F0E080818E7F8C93A5E5B0E0E5E5F0E066
:1039B00080818D7F8C9319822CC0ABE5B0E0EBE564
:1039C000F0E080818F778C93A5E5B0E0E5E5F0E04D
:1039D00080818B7F8C93A5E5B0E0E5E5F0E0808108
:1039E000877F8C93198215C0ABE5B0E0EBE5F0E082
:1039F00080818F7D8C93A4E5B0E0E4E5F0E08081E8
:103A00008F7B8C93198205C087E0898302C082E096
:103A1000898389810F900F900F900F900F90CF9115
:103A2000DF910895DF93CF93CDB7DEB728970FB618
:103A3000F894DEBF0FBECDBF9B838A837D836C83EA
:103A40004E8381E089838A819B81009709F445C078
:103A50008C819D81009709F440C08E81282F30E031
:103A600038872F838F81988581309105B9F02F8118
:103A700038852230310501F18F819885009751F505
:103A80008A819B8190937901809378018C819D81BB
:103A90009093730180937201198221C08A819B8166
:103AA00090937B0180937A018C819D819093750125
:103AB00080937401198213C08A819B8190937D0148
:103AC00080937C018C819D81909377018093760116
:103AD000198205C087E0898302C082E089838981D9
:103AE00028960FB6F894DEBF0FBECDBFCF91DF9101
:103AF00008951F920F920FB60F9211242F933F93A8
:103B00004F935F936F937F938F939F93AF93BF93E5
:103B1000EF93FF93DF93CF93CDB7DEB7809178011A
:103B200090917901009779F08091720190917301E1
:103B3000009749F0E0917801F0917901809172014C
:103B4000909173010995CF91DF91FF91EF91BF9112
:103B5000AF919F918F917F916F915F914F913F9125
:103B60002F910F900FBE0F901F9018951F920F92DC
:103B70000FB60F9211242F933F934F935F936F9340
:103B80007F938F939F93AF93BF93EF93FF93DF93B5
:103B9000CF93CDB7DEB780917A0190917B010097EA
:103BA00079F08091740190917501009749F0E0914E
:103BB0007A01F0917B0180917401909175010995D2
:103BC000CF91DF91FF91EF91BF91AF919F918F9135
:103BD0007F916F915F914F913F912F910F900FBE09
:103BE0000F901F9018951F920F920FB60F921124ED
:103BF0002F933F934F935F936F937F938F939F93F5
:103C0000AF93BF93EF93FF93DF93CF93CDB7DEB71F
:103C100080917C0190917D01009779F080917601EF
:103C200090917701009749F0E0917C01F0917D013E
:103C300080917601909177010995CF91DF91FF9165
:103C4000EF91BF91AF919F918F917F916F915F9114
:103C50004F913F912F910F900FBE0F901F9018958D
:103C6000DF93CF930F92CDB7DEB781E08983EAE38C
:103C7000F0E089ED8083E7E3F0E089ED8083E4E321
:103C8000F0E089ED8083E1E3F0E089ED8083EBE310
:103C9000F0E08FE48083E8E3F0E08FE98083E5E300
:103CA000F0E08FE98083E2E3F0E08FE9808319821E
:103CB00089810F90CF91DF910895DF93CF9300D04A
:103CC00000D00F92CDB7DEB78A836B8381E0898302
:103CD0008A818430A0F58A81282F30E03D832C83AF
:103CE0008C819D8181309105D1F02C813D812230E4
:103CF00031052CF48C819D81009761F01EC02C81D0
:103D00003D812230310581F08C819D818330910588
:103D100081F013C0EAE3F0E08B8180830EC0E7E31B
:103D2000F0E08B81808309C0E4E3F0E08B81808345
:103D300004C0E1E3F0E08B818083198202C083E05C
:103D4000898389810F900F900F900F900F90CF91E2
:103D5000DF910895DF93CF9300D000D00F92CDB7BD
:103D6000DEB78A836B8381E089838A818430A0F502
:103D70008A81282F30E03D832C838C819D81813086
:103D80009105D1F02C813D81223031052CF48C81BC
:103D90009D81009761F01EC02C813D81223031054C
:103DA00081F08C819D818330910581F013C0EBE31C
:103DB000F0E08B8180830EC0E8E3F0E08B818083AC
:103DC00009C0E5E3F0E08B81808304C0E2E3F0E02A
:103DD0008B818083198202C083E0898389810F905F
:103DE0000F900F900F900F90CF91DF910895DF9378
:103DF000CF9300D000D0CDB7DEB78A8381E089832E
:103E00008A81843008F040C08A81282F30E03C83CA
:103E10002B838B819C8181309105E9F02B813C8142
:103E2000223031052CF48B819C81009761F02AC0EF
:103E30002B813C8122303105B1F08B819C81833014
:103E40009105C9F01FC0ABE3B0E0EBE3F0E0808187
:103E500080958C9317C0A8E3B0E0E8E3F0E08081A0
:103E600080958C930FC0A5E3B0E0E5E3F0E080819E
:103E700080958C9307C0A2E3B0E0E2E3F0E080819C
:103E800080958C93198202C083E0898389810F9089
:103E90000F900F900F90CF91DF910895DF93CF9304
:103EA00000D000D000D0CDB7DEB78A837C836B838F
:103EB00081E089838A818430E0F58A81282F30E08F
:103EC0003E832D838D819E8181309105E1F02D818E
:103ED0003E81223031052CF48D819E81009761F066
:103EE00026C02D813E8122303105A1F08D819E8139
:103EF00083309105B1F01BC0E9E3F0E08081EB81F4
:103F0000FC81808314C0E6E3F0E08081EB81FC81DA
:103F100080830DC0E3E3F0E08081EB81FC8180834E
:103F200006C0E0E3F0E08081EB81FC8180831982B0
:103F300002C083E08983898126960FB6F894DEBF9C
:103F40000FBECDBFCF91DF910895DF93CF9300D007
:103F500000D000D0CDB7DEB78A836B834C8381E07D
:103F600089838A81843008F0CFC08B81883008F043
:103F7000C8C08A81282F30E03E832D836D817E81E9
:103F80006130710509F441C08D819E8182309105B7
:103F900034F42D813E812115310571F0B0C06D8161
:103FA0007E816230710509F459C08D819E81833014
:103FB000910509F47CC0A3C0AAE3B0E0EAE3F0E015
:103FC0008081482F8B81282F30E081E090E002C073
:103FD000880F991F2A95E2F7809584238C93AAE392
:103FE000B0E0EAE3F0E08081482F8C81282F30E0B8
:103FF0008B81882F90E0B90102C0660F771F8A95E8
:10400000E2F7CB01842B8C937AC0A7E3B0E0E7E31F
:10401000F0E08081482F8B81282F30E081E090E014
:1040200002C0880F991F2A95E2F7809584238C930C
:10403000A7E3B0E0E7E3F0E08081482F8C81282FF0
:1040400030E08B81882F90E0B90102C0660F771FA6
:104050008A95E2F7CB01842B8C9351C0A4E3B0E0A6
:10406000E4E3F0E08081482F8B81282F30E081E06D
:1040700090E002C0880F991F2A95E2F7809584236B
:104080008C93A4E3B0E0E4E3F0E08081482F8C81DE
:10409000282F30E08B81882F90E0B90102C0660F95
:1040A000771F8A95E2F7CB01842B8C9328C0A1E37C
:1040B000B0E0E1E3F0E08081482F8B81282F30E0F1
:1040C00081E090E002C0880F991F2A95E2F7809561
:1040D00084238C93A1E3B0E0E1E3F0E08081482FFA
:1040E0008C81282F30E08B81882F90E0B90102C0AD
:1040F000660F771F8A95E2F7CB01842B8C93198288
:1041000005C084E0898302C083E089838981269683
:104110000FB6F894DEBF0FBECDBFCF91DF910895EB
:10412000DF93CF9300D000D000D0CDB7DEB78A8325
:104130006B834C8381E089838A81843008F0CFC00F
:104140008B81883008F0C8C08A81282F30E03E83F8
:104150002D836D817E816130710509F441C08D81AF
:104160009E818230910534F42D813E8121153105E7
:1041700071F0B0C06D817E816230710509F459C063
:104180008D819E818330910509F47CC0A3C0ABE38F
:10419000B0E0EBE3F0E08081482F8B81282F30E006
:1041A00081E090E002C0880F991F2A95E2F7809580
:1041B00084238C93ABE3B0E0EBE3F0E08081482F05
:1041C0008C81282F30E08B81882F90E0B90102C0CC
:1041D000660F771F8A95E2F7CB01842B8C937AC008
:1041E000A8E3B0E0E8E3F0E08081482F8B81282F3E
:1041F00030E081E090E002C0880F991F2A95E2F735
:10420000809584238C93A8E3B0E0E8E3F0E080811C
:10421000482F8C81282F30E08B81882F90E0B901C6
:1042200002C0660F771F8A95E2F7CB01842B8C932F
:1042300051C0A5E3B0E0E5E3F0E08081482F8B8139
:10424000282F30E081E090E002C0880F991F2A9566
:10425000E2F7809584238C93A5E3B0E0E5E3F0E0FA
:104260008081482F8C81282F30E08B81882F90E02F
:10427000B90102C0660F771F8A95E2F7CB01842B44
:104280008C9328C0A2E3B0E0E2E3F0E08081482F05
:104290008B81282F30E081E090E002C0880F991FC9
:1042A0002A95E2F7809584238C93A2E3B0E0E2E3C1
:1042B000F0E08081482F8C81282F30E08B81882F7F
:1042C00090E0B90102C0660F771F8A95E2F7CB0133
:1042D000842B8C93198205C084E0898302C083E01B
:1042E0008983898126960FB6F894DEBF0FBECDBFB5
:1042F000CF91DF910895DF93CF9300D000D00F923C
:10430000CDB7DEB78A836B8381E089838A8184306D
:1043100008F077C08B81883008F070C08A81282F20
:1043200030E03D832C838C819D818130910549F162
:104330002C813D81223031052CF48C819D810097A8
:1043400061F05AC02C813D812230310571F18C81A0
:104350009D8183309105E9F14FC0ABE3B0E0EBE321
:10436000F0E08081482F8B81282F30E081E090E0C1
:10437000022E02C0880F991F0A94E2F784278C93BB
:104380003BC0A8E3B0E0E8E3F0E08081482F8B81F8
:10439000282F30E081E090E0022E02C0880F991FA4
:1043A0000A94E2F784278C9327C0A5E3B0E0E5E305
:1043B000F0E08081482F8B81282F30E081E090E071
:1043C000022E02C0880F991F0A94E2F784278C936B
:1043D00013C0A2E3B0E0E2E3F0E08081482F8B81DC
:1043E000282F30E081E090E0022E02C0880F991F54
:1043F0000A94E2F784278C93198205C084E08983AC
:1044000002C083E0898389810F900F900F900F90F5
:104410000F90CF91DF910895DF93CF93CDB7DEB7A3
:1044200027970FB6F894DEBF0FBECDBF8A836B838C
:104430005D834C8381E089838A81843008F081C068
:104440008B81883008F07AC08C819D81009709F4B7
:1044500072C08A81282F30E03F832E834E815F8196
:104460004130510559F18E819F818230910534F49C
:104470002E813F812115310569F05BC04E815F813E
:104480004230510579F18E819F818330910509F485
:104490003DC04FC0E9E3F0E08081282F30E08B8100
:1044A000882F90E0A90102C0559547958A95E2F7BB
:1044B000CA018170EC81FD8180833BC0E6E3F0E0BE
:1044C0008081282F30E08B81882F90E0A90102C0E5
:1044D000559547958A95E2F7CA018170EC81FD8177
:1044E000808327C0E3E3F0E08081282F30E08B81D8
:1044F000882F90E0A90102C0559547958A95E2F76B
:10450000CA018170EC81FD81808313C0E0E3F0E09B
:104510008081282F30E08B81882F90E0A90102C094
:10452000559547958A95E2F7CA018170EC81FD8126
:104530008083198208C082E0898305C084E0898372
:1045400002C083E08983898127960FB6F894DEBF85
:104550000FBECDBFCF91DF910895DF93CF930F9220
:10456000CDB7DEB781E08983A6E2B0E0E6E2F0E015
:10457000808180688C93A7E2B0E0E7E2F0E0808180
:1045800080648C93A6E2B0E0E6E2F0E08081836094
:104590008C93A7E2B0E0E7E2F0E080818F7D8C931E
:1045A000198289810F90CF91DF910895DF93CF9386
:1045B0000F92CDB7DEB781E08983E6E2F0E080813B
:1045C00088234CF0A6E2B0E0E6E2F0E0808180686B
:1045D0008C93198202C088E0898389810F90CF91E2
:1045E000DF910895DF93CF930F92CDB7DEB781E0CF
:1045F0008983E6E2F0E0808188234CF4A6E2B0E013
:10460000E6E2F0E080818F778C93198202C089E026
:10461000898389810F90CF91DF910895DF93CF93A4
:1046200000D0CDB7DEB78A8381E08983A7E2B0E00E
:10463000E7E2F0E080818F738C93A7E2B0E0E7E2DD
:10464000F0E08081282F8A81882F90E000249695C1
:1046500087950794969587950794982F802D822BA0
:104660008C93198289810F900F90CF91DF910895DB
:10467000DF93CF9300D0CDB7DEB78A8381E0898303
:10468000A6E2B0E0E6E2F0E08081887F8C93A6E2CB
:10469000B0E0E6E2F0E090818A81892B8C93198268
:1046A00089810F900F90CF91DF910895DF93CF9381
:1046B00000D0CDB7DEB78A8381E08983A7E2B0E07E
:1046C000E7E2F0E080818F7D8C93A7E2B0E0E7E243
:1046D000F0E08081282F8A81882F90E0880F991F31
:1046E00082959295907F9827807F9827822B8C9334
:1046F00089810F900F90CF91DF910895DF93CF9331
:104700000F92CDB7DEB781E08983E6E2F0E08081E9
:10471000829586958770882F90E0817090700097C1
:1047200081F4A6E2B0E0E6E2F0E0808180628C9362
:10473000A6E2B0E0E6E2F0E0808180618C9319822D
:1047400002C088E0898389810F90CF91DF9108951D
:10475000DF93CF930F92CDB7DEB781E08983E6E296
:10476000F0E08081829586958770882F90E0817037
:104770009070882349F0A6E2B0E0E6E2F0E08081A4
:104780008F7D8C93198202C089E0898389810F9083
:10479000CF91DF910895DF93CF9300D0CDB7DEB7EF
:1047A0008A8381E08983A0E5B0E0E0E5F0E08081E4
:1047B0008F718C93A0E5B0E0E0E5F0E08081282FD8
:1047C0008A81882F90E0880F991F82959295907F1B
:1047D0009827807F9827822B8C9389810F900F9048
:1047E000CF91DF910895DF93CF930F92CDB7DEB7CE
:1047F00081E08983E6E2F0E0808182958695869566
:104800008370882F90E081709070009749F4A6E241
:10481000B0E0E6E2F0E0808180648C93198202C00F
:1048200088E0898389810F90CF91DF910895DF938C
:10483000CF930F92CDB7DEB781E08983E6E2F0E057
:10484000808182958F70882F90E0817090700097A2
:10485000A9F3A6E2B0E0E6E2F0E0808180618C930B
:10486000198289810F90CF91DF910895DF93CF93C3
:1048700000D0CDB7DEB78A8381E089838A818E310B
:1048800088F4A7E2B0E0E7E2F0E08081807E8C93DC
:10489000A7E2B0E0E7E2F0E090818A81892B8C9377
:1048A000198202C085E0898389810F900F90CF9192
:1048B000DF910895DF93CF9300D00F92CDB7DEB78D
:1048C0009B838A8381E089838A819B81009769F138
:1048D000E7E2F0E08081829586958770882F90E0EE
:1048E00081709070009749F4E4E2F0E0808191815A
:1048F000EA81FB819183808316C0E7E2F0E080814A
:10490000829586958770882F90E0817090708823BB
:1049100051F0E5E2F0E08081992787FD9095EA81EA
:10492000FB8191838083198202C082E0898389811F
:104930000F900F900F90CF91DF910895DF93CF9359
:104940000F92CDB7DEB781E08983E6E2F0E08081A7
:10495000869586958695882F90E081709070009757
:1049600081F4A6E2B0E0E6E2F0E0808188608C931A
:10497000AFE5B0E0EFE5F0E0808180688C931982CC
:1049800002C088E0898389810F90CF91DF910895DB
:10499000DF93CF930F92CDB7DEB781E08983E6E254
:1049A000F0E08081869586958695882F90E08170CD
:1049B0009070882349F0A6E2B0E0E6E2F0E0808162
:1049C000877F8C93198202C089E0898389810F9047
:1049D000CF91DF910895DF93CF9300D000D00F9255
:1049E000CDB7DEB79B838A837D836C8381E0898327
:1049F0008A819B81009791F08C819D81009771F055
:104A00008A819B8190937F0180937E018C819D811F
:104A10009093810180938001198202C082E0898392
:104A200089810F900F900F900F900F90CF91DF9191
:104A300008951F920F920FB60F9211242F933F9358
:104A40004F935F936F937F938F939F93AF93BF9396
:104A5000EF93FF93DF93CF93CDB7DEB780917E01C5
:104A600090917F01009779F0809180019091810170
:104A7000009749F0E0917E01F0917F0180918001E3
:104A8000909181010995CF91DF91FF91EF91BF91B5
:104A9000AF919F918F917F916F915F914F913F91D6
:104AA0002F910F900FBE0F901F901895DF93CF930B
:104AB000CDB7DEB7E9970FB6F894DEBF0FBECDBF16
:104AC00081E089AF82E060E041E00E94A51F89AFEC
:104AD00082E061E041E00E94A51F89AF82E062E0D0
:104AE00041E00E94A51F89AF82E063E041E00E949F
:104AF000A51F89AF82E064E041E00E94A51F89AF55
:104B000082E065E041E00E94A51F89AF82E066E097
:104B100041E00E94A51F89AF80E090E0A0EFB1E4E2
:104B20008DAB9EABAFABB8AF6DA97EA98FA998AD89
:104B300020E030E04AE753E40E94FB14DC01CB01A3
:104B400089AB9AABABABBCAB69A97AA98BA99CA981
:104B500020E030E040E85FE30E94011788232CF456
:104B600081E090E098AB8FA73FC069A97AA98BA993
:104B70009CA920E03FEF4FE757E40E94A1161816CA
:104B80004CF56DA97EA98FA998AD20E030E040E2F8
:104B900051E40E94FB14DC01CB01BC01CD010E9459
:104BA000C800DC01CB0198AB8FA70FC089E190E072
:104BB0009EA78DA78DA59EA50197F1F79EA78DA70E
:104BC0008FA598A9019798AB8FA78FA598A9009753
:104BD00069F714C069A97AA98BA99CA90E94C80089
:104BE000DC01CB0198AB8FA78FA598A99CA78BA7B9
:104BF0008BA59CA50197F1F79CA78BA788E20E9443
:104C0000242B89AF80E090E0A0E8BFE38FA398A7B2
:104C1000A9A7BAA76FA178A589A59AA520E030E039
:104C20004AE753E40E94FB14DC01CB018BA39CA355
:104C3000ADA3BEA36BA17CA18DA19EA120E030E01D
:104C400040E85FE30E94011788232CF481E090E0A4
:104C50009AA389A33FC06BA17CA18DA19EA120E056
:104C60003FEF4FE757E40E94A11618164CF56FA1CD
:104C700078A589A59AA520E030E040E251E40E94A1
:104C8000FB14DC01CB01BC01CD010E94C800DC019A
:104C9000CB019AA389A30FC089E190E098A38F8FDD
:104CA0008F8D98A10197F1F798A38F8F89A19AA171
:104CB00001979AA389A389A19AA1009769F714C0C3
:104CC0006BA17CA18DA19EA10E94C800DC01CB013B
:104CD0009AA389A389A19AA19E8F8D8F8D8D9E8D78
:104CE0000197F1F79E8F8D8F8FE00E94242B89AF63
:104CF00080E090E0A0E8BFE3898F9A8FAB8FBC8FF4
:104D0000698D7A8D8B8D9C8D20E030E04AE753E4ED
:104D10000E94FB14DC01CB018D8B9E8BAF8BB88F77
:104D20006D897E898F89988D20E030E040E85FE3CF
:104D30000E94011788232CF481E090E09C8B8B8BE0
:104D40003FC06D897E898F89988D20E03FEF4FE7C6
:104D500057E40E94A11618164CF5698D7A8D8B8D3B
:104D60009C8D20E030E040E251E40E94FB14DC0125
:104D7000CB01BC01CD010E94C800DC01CB019C8BA2
:104D80008B8B0FC089E190E09A8B898B89899A89F6
:104D90000197F1F79A8B898B8B899C8901979C8B62
:104DA0008B8B8B899C89009769F714C06D897E89EC
:104DB0008F89988D0E94C800DC01CB019C8B8B8B66
:104DC0008B899C89988B8F878F8598890197F1F7BC
:104DD000988B8F8781E00E94242B89AF80E090E040
:104DE000A0E0B0E48B879C87AD87BE876B857C8510
:104DF0008D859E8520E030E04AE753E40E94FB1455
:104E0000DC01CB018F839887A987BA876F8178856A
:104E100089859A8520E030E040E85FE30E94011731
:104E200088232CF481E090E09E838D833FC06F81C6
:104E3000788589859A8520E03FEF4FE757E40E9407
:104E4000A11618164CF56B857C858D859E8520E016
:104E500030E040E251E40E94FB14DC01CB01BC01D4
:104E6000CD010E94C800DC01CB019E838D830FC061
:104E700089E190E09C838B838B819C810197F1F782
:104E80009C838B838D819E8101979E838D838D81F1
:104E90009E81009769F714C06F81788589859A850E
:104EA0000E94C800DC01CB019E838D838D819E8191
:104EB0009A83898389819A810197F1F79A838983FB
:104EC00086E00E94242B89AF89ADE9960FB6F8944D
:104ED000DEBF0FBECDBFCF91DF910895DF93CF939B
:104EE00000D0CDB7DEB78A8381E089838A810E94B2
:104EF000242B8983198289810F900F90CF91DF91A4
:104F00000895DF93CF9300D0CDB7DEB78A8381E0D9
:104F100089838A810E94C228898389810F900F909A
:104F2000CF91DF910895DF93CF9300D000D0CDB71C
:104F3000DEB79C838B8381E08A8319828B819C817D
:104F40000097E1F00FC08981282F30E08B819C8190
:104F5000FC01E20FF31F80810E94C2288A838981AD
:104F60008F5F89838981282F30E08B819C81FC01B0
:104F7000E20FF31F8081882331F702C082E08A8329
:104F80008A810F900F900F900F90CF91DF9108952D
:104F9000AF92BF92CF92DF92EF92FF920F931F9347
:104FA000DF93CF93CDB7DEB729970FB6F894DEBF66
:104FB0000FBECDBF2A833B834C835D836E837F838B
:104FC0008887998781E08983AA80BB80CC80DD8037
:104FD000EE80FF80088519852A2D3B2D4C2D5D2DF7
:104FE0006E2D7F2D802F912F0E946D2F89838981B7
:104FF00029960FB6F894DEBF0FBECDBFCF91DF91DB
:105000001F910F91FF90EF90DF90CF90BF90AF90E6
:105010000895AF92BF92CF92DF92EF92FF920F93DB
:105020001F93DF93CF93CDB7DEB762970FB6F89497
:10503000DEBF0FBECDBF6F87788B898B9A8B81E0E7
:105040008E876F85788989899A8920E030E040E0F1
:1050500050E00E94011788236CF48DE20E94C22860
:105060008E878F859889A989BA89B0588F87988B40
:10507000A98BBA8B6F85788989899A890E94680182
:10508000A22EB32EC42ED52EE62EF72E082F192FC2
:10509000AE82BF82C886D986EA86FB860C871D87CA
:1050A0002E813F81488559856A857B858C859D85C4
:1050B0000E9410029B01AC016F85788989899A89C9
:1050C0000E949D14DC01CB018A839B83AC83BD834A
:1050D000AE80BF80C884D984EA84FB840C851D859A
:1050E0002A2D3B2D4C2D5D2D6E2D7F2D802F912F48
:1050F0000E946D2F8E878EE20E94C2288E871982B1
:1051000013C06A817B818C819D8120E030E040E288
:1051100051E40E94FB14DC01CB018A839B83AC83A6
:10512000BD8389818F5F89838981843050F36A814F
:105130007B818C819D810E94F400A22EB32EC42E0F
:10514000D52EE62EF72E082F192F2A2D3B2D4C2D6C
:105150005D2D6E2D7F2D802F912F0E946D2F8E87BC
:105160008E8562960FB6F894DEBF0FBECDBFCF918D
:10517000DF911F910F91FF90EF90DF90CF90BF9044
:10518000AF900895DF93CF93CDB7DEB7EA970FB610
:10519000F894DEBF0FBECDBF8AAF81E089AF82E059
:1051A00060E041E00E94902089AF82E061E040E051
:1051B0000E94902089AF82E062E040E00E9490204F
:1051C00089AF8AAD982F991F9927991F82E063E0D4
:1051D000492F0E94902089AF8AAD82958695869549
:1051E0008370982F917082E064E0492F0E94902094
:1051F00089AF8AAD829586958770982F917082E0ED
:1052000065E0492F0E94902089AF8AAD82958F700A
:10521000982F917082E066E0492F0E94902089AF1C
:1052200082E062E041E00E94902089AF80E090E05F
:10523000A0E2B1E48DAB9EABAFABB8AF6DA97EA9D8
:105240008FA998AD20E030E04AE753E40E94FB14B8
:10525000DC01CB0189AB9AABABABBCAB69A97AA93A
:105260008BA99CA920E030E040E85FE30E94011791
:1052700088232CF481E090E098AB8FA73FC069A908
:105280007AA98BA99CA920E03FEF4FE757E40E9441
:10529000A11618164CF56DA97EA98FA998AD20E02E
:1052A00030E040E251E40E94FB14DC01CB01BC0180
:1052B000CD010E94C800DC01CB0198AB8FA70FC0C5
:1052C00089E190E09EA78DA78DA59EA50197F1F796
:1052D0009EA78DA78FA598A9019798AB8FA78FA59B
:1052E00098A9009769F714C069A97AA98BA99CA904
:1052F0000E94C800DC01CB0198AB8FA78FA598A9AD
:105300009CA78BA78BA59CA50197F1F79CA78BA7C2
:1053100082E062E040E00E94902089AF80E090E06F
:10532000A0E2B1E48FA398A7A9A7BAA76FA178A517
:1053300089A59AA520E030E04AE753E40E94FB14D7
:10534000DC01CB018BA39CA3ADA3BEA36BA17CA16D
:105350008DA19EA120E030E040E85FE30E940117AC
:1053600088232CF481E090E09AA389A33FC06BA12D
:105370007CA18DA19EA120E03FEF4FE757E40E9462
:10538000A11618164CF56FA178A589A59AA520E05D
:1053900030E040E251E40E94FB14DC01CB01BC018F
:1053A000CD010E94C800DC01CB019AA389A30FC0E4
:1053B00089E190E098A38F8F8F8D98A10197F1F7E5
:1053C00098A38F8F89A19AA101979AA389A389A1F4
:1053D0009AA1009769F714C06BA17CA18DA19EA131
:1053E0000E94C800DC01CB019AA389A389A19AA1DC
:1053F0009E8F8D8F8D8D9E8D0197F1F79E8F8D8F56
:105400008AAD869586958695982F917082E063E0A7
:10541000492F0E94902089AF8AAD86958695982F56
:10542000917082E064E0492F0E94902089AF8AAD9C
:105430008695982F917082E065E0492F0E94902018
:1054400089AF8AAD982F917082E066E0492F0E9463
:10545000902089AF82E062E041E00E94902089AF15
:1054600080E090E0A0E2B1E4898F9A8FAB8FBC8F8F
:10547000698D7A8D8B8D9C8D20E030E04AE753E476
:105480000E94FB14DC01CB018D8B9E8BAF8BB88F00
:105490006D897E898F89988D20E030E040E85FE358
:1054A0000E94011788232CF481E090E09C8B8B8B69
:1054B0003FC06D897E898F89988D20E03FEF4FE74F
:1054C00057E40E94A11618164CF5698D7A8D8B8DC4
:1054D0009C8D20E030E040E251E40E94FB14DC01AE
:1054E000CB01BC01CD010E94C800DC01CB019C8B2B
:1054F0008B8B0FC089E190E09A8B898B89899A897F
:105500000197F1F79A8B898B8B899C8901979C8BEA
:105510008B8B8B899C89009769F714C06D897E8974
:105520008F89988D0E94C800DC01CB019C8B8B8BEE
:105530008B899C89988B8F878F8598890197F1F744
:10554000988B8F8782E062E040E00E94902089AFD4
:1055500080E090E0A0E2B1E48B879C87AD87BE87B6
:105560006B857C858D859E8520E030E04AE753E49D
:105570000E94FB14DC01CB018F839887A987BA872F
:105580006F81788589859A8520E030E040E85FE387
:105590000E94011788232CF481E090E09E838D8384
:1055A0003FC06F81788589859A8520E03FEF4FE77E
:1055B00057E40E94A11618164CF56B857C858D85E5
:1055C0009E8520E030E040E251E40E94FB14DC01C3
:1055D000CB01BC01CD010E94C800DC01CB019E8340
:1055E0008D830FC089E190E09C838B838B819C81AC
:1055F0000197F1F79C838B838D819E8101979E8318
:105600008D838D819E81009769F714C06F817885A5
:1056100089859A850E94C800DC01CB019E838D8319
:105620008D819E819A83898389819A810197F1F77F
:105630009A83898389ADEA960FB6F894DEBF0FBED0
:10564000CDBFCF91DF9108950F931F93DF93CF9339
:10565000CDB7DEB7C655D0400FB6F894DEBF0FBE4B
:10566000CDBFFE01EA5AFF4F808382E060E040E058
:105670000E949020FE01EB5AFF4F808382E061E0A0
:1056800040E00E949020FE01EB5AFF4F808382E0B1
:1056900062E040E00E949020FE01EB5AFF4F8083C1
:1056A000FE01EA5AFF4F8081982F991F9927991F71
:1056B00082E063E0492F0E949020FE01EB5AFF4FE9
:1056C0008083FE01EA5AFF4F8081829586958695F8
:1056D0008370982F917082E064E0492F0E9490209F
:1056E000FE01EB5AFF4F8083FE01EA5AFF4F808193
:1056F000829586958770982F917082E065E0492F9A
:105700000E949020FE01EB5AFF4F8083FE01EA5A6F
:10571000FF4F808182958F70982F917082E066E0B4
:10572000492F0E949020FE01EB5AFF4F8083FE011B
:10573000EA5AFF4F8081883209F091C182E062E02D
:1057400041E00E949020FE01EB5AFF4F8083FE0152
:10575000EF5AFF4F80E090E0A0E2B1E480839183B4
:10576000A283B3838E01035B1F4FFE01EF5AFF4FED
:10577000608171818281938120E030E04AE753E4C7
:105780000E94FB14DC01CB01F80180839183A2838A
:10579000B383FE01E35BFF4F60817181828193815E
:1057A00020E030E040E85FE30E940117882344F4E2
:1057B000FE01E55BFF4F81E090E09183808364C050
:1057C000FE01E35BFF4F608171818281938120E064
:1057D0003FEF4FE757E40E94A11618160CF043C0A4
:1057E000FE01EF5AFF4F608171818281938120E039
:1057F00030E040E251E40E94FB14DC01CB018E0159
:10580000055B1F4FBC01CD010E94C800DC01CB012C
:10581000F801918380831FC0FE01E75BFF4F89E1A0
:1058200090E091838083FE01E75BFF4F808191814F
:105830000197F1F7FE01E75BFF4F91838083DE0163
:10584000A55BBF4FFE01E55BFF4F80819181019712
:1058500011969C938E93FE01E55BFF4F80819181B1
:105860000097D1F627C08E01055B1F4FFE01E35B59
:10587000FF4F60817181828193810E94C800DC01A9
:10588000CB01F80191838083DE01A95BBF4FFE014C
:10589000E55BFF4F808191818D939C93FE01E95BD5
:1058A000FF4F808191810197F1F7FE01E95BFF4F86
:1058B0009183808382E062E040E00E949020FE01BC
:1058C000EB5AFF4F8083FE01ED5BFF4F80E090E0DD
:1058D000A0E2B1E480839183A283B3838E01015C53
:1058E0001F4FFE01ED5BFF4F6081718182819381CB
:1058F00020E030E04AE753E40E94FB14DC01CB01D6
:10590000F80180839183A283B383FE01FF966081B7
:1059100071818281938120E030E040E85FE30E9462
:10592000011788232CF481E090E09EAF8DAF46C034
:10593000FE01FF96608171818281938120E03FEFBB
:105940004FE757E40E94A116181664F5FE01ED5BBF
:10595000FF4F608171818281938120E030E040E2DD
:1059600051E40E94FB14DC01CB01BC01CD010E947B
:10597000C800DC01CB019EAF8DAF0FC089E190E084
:105980009CAF8BAF8BAD9CAD0197F1F79CAF8BAF0C
:105990008DAD9EAD01979EAF8DAF8DAD9EAD009745
:1059A00069F716C0FE01FF96608171818281938143
:1059B0000E94C800DC01CB019EAF8DAF8DAD9EADC6
:1059C0009AAF89AF89AD9AAD0197F1F79AAF89AFD8
:1059D000FE01EA5AFF4F8081982F991F9927991F3E
:1059E00082E063E0492F0E949020FE01EB5AFF4FB6
:1059F0008083FE01EA5AFF4F8081829586958695C5
:105A00008370982F917082E064E0492F0E9490206B
:105A1000FE01EB5AFF4F8083FE01EA5AFF4F80815F
:105A2000829586958770982F917082E065E0492F66
:105A30000E949020FE01EB5AFF4F8083FE01EA5A3C
:105A4000FF4F808182958F70982F917082E066E081
:105A5000492F0E949020FE01EB5AFF4F808382E085
:105A600062E041E00E949020FE01EB5AFF4F8083EC
:105A700080E090E0A0E2B1E48DAB9EABAFABB8AFFD
:105A80006DA97EA98FA998AD20E030E04AE753E4E4
:105A90000E94FB14DC01CB0189AB9AABABABBCAB76
:105AA00069A97AA98BA99CA920E030E040E85FE3CE
:105AB0000E94011788232CF481E090E098AB8FA717
:105AC0003FC069A97AA98BA99CA920E03FEF4FE7C5
:105AD00057E40E94A11618164CF56DA97EA98FA94E
