:100000000C942A000C944C080C9489080C94C60893
:100010000C9447000C9447000C9447000C94470044
:100020000C9447000C9447000C9447000C94470034
:100030000C9447000C9447000C9447000C94470024
:100040000C9447000C9447000C9447000C94470014
:100050000C94470011241FBECFE5D8E0DEBFCDBF12
:1000600010E0A0E6B0E0EAE8F9E102C005900D92E8
:10007000A837B107D9F710E0A8E7B0E001C01D929A
:10008000A438B107E1F70E9403090C94C30C0C9447
:100090000000EF92FF920F931F937B018C0120E0F1
:1000A00030E040E05FE40E94490388238CF0C801FF
:1000B000B70120E030E040E05FE40E94C1010E940F
:1000C000A9039B01AC01205030404040504806C07D
:1000D000C801B7010E94A9039B01AC01B901CA0183
:1000E0001F910F91FF90EF900895A0E0B0E0EBE733
:1000F000F0E00C948C0CDC012B01FA019C91923005
:1001000008F439C1EB018881823008F433C194309E
:1001100069F4843009F02FC111969C91119789815F
:10012000981709F428C1A0E6B0E025C1843009F48D
:1001300021C18230A9F4923009F01DC19A01AD01AC
:1001400088E0EA010990AE01E90109929E0181501F
:10015000C1F7E201898111969C918923818308C1AD
:10016000923009F407C112962D903C901397EB0141
:100170008A819B811496AD90BD90CD90DC901797AD
:10018000EC80FD800E811F819101281B390BB90184
:1001900037FF04C066277727621B730B6032710537
:1001A0000CF061C0121613066CF537014801062EDB
:1001B00004C096948794779467940A94D2F721E0C8
:1001C00030E040E050E004C0220F331F441F551FB1
:1001D0006A95D2F721503040404050402E213F21B7
:1001E00040235123211531054105510521F021E01E
:1001F00030E040E050E079018A01E628F72808293C
:1002000019293CC0232BD1F1260E371E350146019A
:10021000062E04C096948794779467940A94D2F734
:1002200021E030E040E050E004C0220F331F441FC3
:10023000551F6A95D2F721503040404050402A2146
:100240003B214C215D21211531054105510521F04E
:1002500021E030E040E050E059016A01A628B728CB
:10026000C828D9280BC0821593052CF01C01AA249C
:10027000BB24650103C0EE24FF24870111969C91E5
:10028000D20111968C91981709F445C0992339F041
:10029000A80197012A193B094C095D0906C0A6016E
:1002A00095012E193F09400B510B57FD08C01182D3
:1002B0003382228224833583468357831DC081E0A5
:1002C00081833382228288279927DC01821B930B4A
:1002D000A40BB50B84839583A683B7830DC0220F2F
:1002E000331F441F551F24833583468357838281E0
:1002F000938101979383828324813581468157813D
:10030000DA01C9010197A109B1098F5F9F4FAF4F72
:10031000BF4328F30BC0918333822282EA0CFB1C7B
:100320000C1D1D1DE482F5820683178383E0808304
:10033000248135814681578157FF1AC0C901AA27F8
:1003400097FDA095BA2F81709070A070B0705695EF
:10035000479537952795822B932BA42BB52B848318
:100360009583A683B7838281938101969383828349
:10037000DF0101C0D201CD01CDB7DEB7E2E10C94BF
:10038000A80CA0E2B0E0E7ECF1E00C94980C6983D3
:100390007A838B839C832D833E834F835887E9E048
:1003A000EE2EF12CEC0EFD1ECE010196B7010E943F
:1003B000D2048E010F5E1F4FCE010596B8010E9438
:1003C000D2048A8991E089278A8BC701B801AE01DE
:1003D000475E5F4F0E9475000E94FD03A096E6E015
:1003E0000C94B40CA0E2B0E0E8EFF1E00C94980CAF
:1003F00069837A838B839C832D833E834F835887C5
:10040000F9E0EF2EF12CEC0EFD1ECE010196B701A6
:100410000E94D2048E010F5E1F4FCE010596B801D7
:100420000E94D204C701B801AE01475E5F4F0E942F
:1004300075000E94FD03A096E6E00C94B40CA0E2C7
:10044000B0E0E5E2F2E00C948C0C69837A838B8354
:100450009C832D833E834F835887CE010196BE0136
:10046000675F7F4F0E94D204CE010596BE016F5E8A
:100470007F4F0E94D2049985923088F0898982301A
:10048000C8F0943019F4823051F404C0843029F457
:10049000923081F480E690E0C6C0923049F420E0CA
:1004A0009A858A89981321E02A87CE010996BBC0D4
:1004B000823049F420E09A858A89981321E02A8BBA
:1004C000CE014196B0C02D843E844F8458886D88FB
:1004D0007E888F88988CEE24FF248701AA24BB2471
:1004E000650140E050E060E070E0E0E0F0E0C10174
:1004F00081709070892BE9F0E60CF71C081D191D1E
:100500009A01AB012A0D3B1D4C1D5D1D80E090E062
:10051000A0E0B0E0E614F7040805190520F481E036
:1005200090E0A0E0B0E0BA01A901480F591F6A1F8E
:100530007B1FAA0CBB1CCC1CDD1C97FE08C081E0F5
:1005400090E0A0E0B0E0A82AB92ACA2ADB2A3196B6
:10055000E032F10549F0660C771C881C991C569412
:10056000479437942794C3CFFA85EA892B893C892D
:100570008B859C85280F391F2E5F3F4F17C0CA01FE
:1005800081709070892B61F016950795F794E79428
:1005900080E090E0A0E0B0E8E82AF92A0A2B1B2BC3
:1005A00076956795579547952F5F3F4F77FDE7CF36
:1005B0000CC0440F551F661F771F17FD4160EE0CDE
:1005C000FF1C001F111F21503040403090E05907A0
:1005D00090E0690790E4790760F32B8F3C8FDB0193
:1005E000CA018F779070A070B07080349105A1051A
:1005F000B10561F447FD0AC0E114F10401051105DC
:1006000029F0405C5F4F6F4F7F4F40781A8EFE1786
:1006100011F081E08A8F4D8F5E8F6F8F78A383E01A
:10062000898FCE0149960E94FD03A096E2E10C94C9
:10063000A80CA8E1B0E0EFE1F3E00C94980C69831A
:100640007A838B839C832D833E834F83588789E0F5
:10065000E82EF12CEC0EFD1ECE010196B7010E9492
:10066000D2048E010F5E1F4FCE010596B8010E9485
:10067000D2048985823040F08989823028F0C70110
:10068000B8010E944A0501C08FEF6896E6E00C941D
:10069000B40CA8E1B0E0EFE4F3E00C94980C6983AB
:1006A0007A838B839C832D833E834F83588789E095
:1006B000E82EF12CEC0EFD1ECE010196B7010E9432
:1006C000D2048E010F5E1F4FCE010596B8010E9425
:1006D000D2048985823040F08989823028F0C701B0
:1006E000B8010E944A0501C08FEF6896E6E00C94BD
:1006F000B40CA8E1B0E0EFE7F3E00C94980C698348
:100700007A838B839C832D833E834F83588789E034
:10071000E82EF12CEC0EFD1ECE010196B7010E94D1
:10072000D2048E010F5E1F4FCE010596B8010E94C4
:10073000D2048985823040F08989823028F0C7014F
:10074000B8010E944A0501C081E06896E6E00C9479
:10075000B40CACE0B0E0EFEAF3E00C949C0C6983DD
:100760007A838B839C83CE010196BE016B5F7F4FA2
:100770000E94D2048D81823061F1823050F1843048
:1007800021F48E81882351F12EC02F81388537FDC9
:1007900020C06E812F3131051CF06623F9F023C093
:1007A0008EE190E0821B930B29853A854B855C8511
:1007B00004C056954795379527958A95D2F76623B5
:1007C000B1F050954095309521953F4F4F4F5F4F79
:1007D0000EC020E030E040E050E009C02FEF3FEFD6
:1007E0004FEF5FE704C020E030E040E050E8B9019F
:1007F000CA012C96E2E00C94B80CDF92EF92FF92C3
:100800000F931F93FC01E480F58006811781D1804E
:100810008081823048F480E090E0A0E1B0E0E82AF6
:10082000F92A0A2B1B2BA5C0843009F49FC0823003
:1008300021F4EE24FF24870105C0E114F104010531
:10084000110519F4E0E0F0E096C0628173819FEF3A
:10085000623879070CF05BC022E83FEF261B370BAC
:100860002A3131052CF020E030E040E050E02AC091
:10087000B801A701022E04C0769567955795479554
:100880000A94D2F781E090E0A0E0B0E004C0880FC5
:10089000991FAA1FBB1F2A95D2F70197A109B10979
:1008A0008E219F21A023B1230097A105B10521F03E
:1008B00081E090E0A0E0B0E09A01AB01282B392B59
:1008C0004A2B5B2BDA01C9018F779070A070B07052
:1008D00080349105A105B10539F427FF09C0205CDA
:1008E0003F4F4F4F5F4F04C0215C3F4F4F4F5F4F13
:1008F000E0E0F0E02030A0E03A07A0E04A07A0E402
:100900005A0710F0E1E0F0E079018A0127C0603871
:10091000710564F5FB01E158FF4FD801C7018F77DE
:100920009070A070B07080349105A105B10539F4C4
:10093000E7FE0DC080E490E0A0E0B0E004C08FE3EB
:1009400090E0A0E0B0E0E80EF91E0A1F1B1F17FFA1
:1009500005C016950795F794E794319687E01695AC
:100960000795F794E7948A95D1F705C0EE24FF2404
:100970008701EFEFF0E06E2F679566276795902F60
:100980009F77D794DD24D7948E2F8695492F462BB9
:10099000582F5D29B701CA011F910F91FF90EF9069
:1009A000DF900895FC01DB01408151812281622F9B
:1009B0006F7770E0221F2227221F9381892F880FD3
:1009C000822B282F30E0991F9927991F11969C930D
:1009D000119721153105A9F54115510561057105DD
:1009E00011F482E037C082E89FEF13969C938E93B8
:1009F00012979A01AB0167E0220F331F441F551F66
:100A00006A95D1F783E08C930DC0220F331F441FEA
:100A1000551F12968D919C911397019713969C9355
:100A20008E931297203080E0380780E0480780E4FA
:100A3000580758F314962D933D934D935C93179755
:100A400008952F3F310579F4411551056105710570
:100A500019F484E08C93089564FF03C081E08C93C3
:100A600012C01C9210C02F57304013963C932E9307
:100A7000129783E08C9387E0440F551F661F771F02
:100A80008A95D1F7706414964D935D936D937C9322
:100A9000179708951F93DC01FB019C91923008F495
:100AA00047C08081823008F443C0943051F41196DD
:100AB0001C91843099F58181682F70E0611B710968
:100AC0003FC0843021F0923031F48230B9F181811D
:100AD000882389F12DC011961C9111978230F1F075
:100AE00081811817D9F412962D913C911397828128
:100AF00093818217930794F028173907BCF0149656
:100B00008D919D910D90BC91A02D248135814681C0
:100B10005781281739074A075B0718F4112341F05A
:100B20000AC082179307A407B50740F4112319F0F0
:100B300061E070E005C06FEF7FEF02C060E070E041
:100B4000CB011F910895DF93CF9300D000D000D048
:100B5000CDB7DEB79C838B8381E08A838B819C81B8
:100B6000009709F4F8C01982F1C08981282F30E07C
:100B7000C901880F991F280F391F8B819C81FC01A7
:100B8000E20FF31F8181803509F0DDC0A5E5B0E0FB
:100B9000E5E5F0E080818E7F8C93A5E5B0E0E5E5AA
:100BA000F0E080818D7F8C93A5E5B0E0E5E5F0E095
:100BB00080818B7F8C93A5E5B0E0E5E5F0E0808156
:100BC000877F8C93A4E5B0E0E4E5F0E080818F7B43
:100BD0008C93AFE5B0E0EFE5F0E0808180688C9326
:100BE0008981282F30E0C901880F991F280F391FEC
:100BF0008B819C81FC01E20FF31F8081282F30E064
:100C00003E832D838D819E818130910581F12D81DF
:100C10003E812230310509F456C08D819E810097B6
:100C200009F08FC0ABE5B0E0EBE5F0E080818064D7
:100C30008C93A5E5B0E0E5E5F0E040818981282FBF
:100C400030E0C901880F991F280F391F8B819C81C3
:100C5000FC01E20FF31F8281842B8C93AAE5B0E0A4
:100C6000EAE5F0E0808180648C931A826CC0ABE589
:100C7000B0E0EBE5F0E0808180688C93A5E5B0E022
:100C8000E5E5F0E08081482F8981282F30E0C90117
:100C9000880F991F280F391F8B819C81FC01E20F5F
:100CA000F31F8281882F90E0880F991F880F991F6A
:100CB000842B8C93AAE5B0E0EAE5F0E080818068BF
:100CC0008C931A8240C0ABE5B0E0EBE5F0E08081A8
:100CD00080628C938981282F30E0C901880F991F89
:100CE000280F391F8B819C81FC01E20FF31F828149
:100CF000823039F4E4E5F0E0A4E5B0E08C91808343
:100D000017C08981282F30E0C901880F991F280F4B
:100D1000391F8B819C81FC01E20FF31F828183309C
:100D200039F4A4E5B0E0E4E5F0E0808180648C93E0
:100D3000AAE5B0E0EAE5F0E0808180628C931A8257
:100D400002C086E08A8389818F5F898389818330AD
:100D500008F40BCF02C082E08A838A8126960FB600
:100D6000F894DEBF0FBECDBFCF91DF910895DF9322
:100D7000CF9300D000D000D0CDB7DEB79B838A835D
:100D80006C8381E089838A819B81009709F49FC0ED
:100D9000AFE5B0E0EFE5F0E0808180688C93EA8118
:100DA000FB818081282F30E03E832D838D819E81C1
:100DB0008130910589F12D813E812230310509F480
:100DC00058C08D819E81009709F07EC0A5E5B0E0F6
:100DD000E5E5F0E080818E7F8C93A5E5B0E0E5E568
:100DE000F0E080818D7F8C93ABE5B0E0EBE5F0E047
:100DF000808180648C93A5E5B0E0E5E5F0E090812A
:100E00008C81892B8C93AAE5B0E0EAE5F0E0808143
:100E100080648C9319825DC0A5E5B0E0E5E5F0E063
:100E200080818B7F8C93A5E5B0E0E5E5F0E08081E3
:100E3000877F8C93ABE5B0E0EBE5F0E080818068E4
:100E40008C93A5E5B0E0E5E5F0E08081282F8C816A
:100E5000882F90E0880F991F880F991F822B8C9301
:100E6000AAE5B0E0EAE5F0E0808180688C93198221
:100E700030C0A4E5B0E0E4E5F0E080818F7B8C93A6
:100E8000ABE5B0E0EBE5F0E0808180628C93A4E517
:100E9000B0E0E4E5F0E08081282F8C81882F90E09D
:100EA0000024969587950794969587950794982F93
:100EB000802D822B8C93AAE5B0E0EAE5F0E08081FA
:100EC00080628C93198205C086E0898302C082E02B
:100ED0008983898126960FB6F894DEBF0FBECDBFF9
:100EE000CF91DF910895DF93CF9300D000D00F9280
:100EF000CDB7DEB79B838A8381E089838A819B811A
:100F0000009709F457C0EA81FB818081282F30E0E7
:100F10003D832C838C819D818130910509F12C8149
:100F20003D812230310599F18C819D81009709F036
:100F30003EC0ABE5B0E0EBE5F0E080818F7B8C93C9
:100F4000A5E5B0E0E5E5F0E080818E7F8C93A5E536
:100F5000B0E0E5E5F0E080818D7F8C9319822CC0B4
:100F6000ABE5B0E0EBE5F0E080818F778C93A5E511
:100F7000B0E0E5E5F0E080818B7F8C93A5E5B0E003
:100F8000E5E5F0E08081877F8C93198215C0ABE5A1
:100F9000B0E0EBE5F0E080818F7D8C93A4E5B0E0DC
:100FA000E4E5F0E080818F7B8C93198205C086E0B8
:100FB000898302C082E0898389810F900F900F900E
:100FC0000F900F90CF91DF910895DF93CF93CDB71E
:100FD000DEB728970FB6F894DEBF0FBECDBF9B8358
:100FE0008A837D836C834E8381E089838A819B81A0
:100FF000009709F445C08C819D81009709F440C099
:101000008E81282F30E038872F838F81988581301B
:101010009105B9F02F8138852230310501F18F819A
:101020009885009751F58A819B8190937F008093EA
:101030007E008C819D819093790080937800198245
:1010400021C08A819B8190938100809380008C8154
:101050009D8190937B0080937A00198213C08A81CE
:101060009B8190938300809382008C819D819093DB
:101070007D0080937C00198205C086E0898302C0D0
:1010800082E08983898128960FB6F894DEBF0FBE6F
:10109000CDBFCF91DF9108951F920F920FB60F929F
:1010A00011242F933F934F935F936F937F938F936D
:1010B0009F93AF93BF93EF93FF93DF93CF93CDB7FE
:1010C000DEB780917E0090917F00009779F080914B
:1010D000780090917900009749F0E0917E00F091BE
:1010E0007F0080917800909179000995CF91DF91F0
:1010F000FF91EF91BF91AF919F918F917F916F91F0
:101100005F914F913F912F910F900FBE0F901F90C5
:1011100018951F920F920FB60F9211242F933F93A1
:101120004F935F936F937F938F939F93AF93BF93EF
:10113000EF93FF93DF93CF93CDB7DEB7809180001D
:1011400090918100009779F080917A0090917B00D6
:10115000009749F0E0918000F091810080917A0041
:1011600090917B000995CF91DF91FF91EF91BF9115
:10117000AF919F918F917F916F915F914F913F912F
:101180002F910F900FBE0F901F9018951F920F92E6
:101190000FB60F9211242F933F934F935F936F934A
:1011A0007F938F939F93AF93BF93EF93FF93DF93BF
:1011B000CF93CDB7DEB780918200909183000097E6
:1011C00079F080917C0090917D00009749F0E0914A
:1011D0008200F091830080917C0090917D000995C0
:1011E000CF91DF91FF91EF91BF91AF919F918F913F
:1011F0007F916F915F914F913F912F910F900FBE13
:101200000F901F901895DF93CF93CDB7DEB7AA97B5
:101210000FB6F894DEBF0FBECDBF88E690E00E9407
:10122000A305EAE3F0E08FEF8083E7E3F0E08BEFE4
:101230008083E4E3F0E08FEF8083A1E3B0E0E1E3BB
:10124000F0E080818E7F8C93A1E3B0E0E1E3F0E0F9
:10125000808181608C93EBE3F0E01082E5E3F0E0C5
:101260008FEF8083E8E3F0E08FEF80838AEB9AE0F2
:1012700021E730E0B90141E00E94E50781EF9BE002
:1012800023E730E0B90140E00E94E50785E59BE0F7
:1012900025E730E0B90142E00E94E507A5E3B0E0B0
:1012A000E5E3F0E0808180958C9380E090E0AAEF08
:1012B000B3E48FA398A7A9A7BAA76FA178A589A51A
:1012C0009AA520E030E04AE753E40E941F02DC01C7
:1012D000CB018BA39CA3ADA3BEA36BA17CA18DA1CD
:1012E0009EA120E030E040E85FE30E94790388237C
:1012F0002CF481E090E09AA389A33FC06BA17CA16C
:101300008DA19EA120E03FEF4FE757E40E94190313
:1013100018164CF56FA178A589A59AA520E030E0B4
:1013200040E251E40E941F02DC01CB01BC01CD016F
:101330000E944900DC01CB019AA389A30FC089E177
:1013400090E098A38F8F8F8D98A10197F1F798A3C4
:101350008F8F89A19AA101979AA389A389A19AA1A4
:10136000009769F714C06BA17CA18DA19EA10E947A
:101370004900DC01CB019AA389A389A19AA19E8F80
:101380008D8F8D8D9E8D0197F1F79E8F8D8FABE3A5
:10139000B0E0EBE3F0E0808180958C9380E090E01A
:1013A000AAEFB3E4898F9A8FAB8FBC8F698D7A8D4A
:1013B0008B8D9C8D20E030E04AE753E40E941F02B1
:1013C000DC01CB018D8B9E8BAF8BB88F6D897E89B5
:1013D0008F89988D20E030E040E85FE30E94790338
:1013E00088232CF481E090E09C8B8B8B3FC06D892F
:1013F0007E898F89988D20E03FEF4FE757E40E9468
:10140000190318164CF5698D7A8D8B8D9C8D20E013
:1014100030E040E251E40E941F02DC01CB01BC013C
:10142000CD010E944900DC01CB019C8B8B8B0FC04E
:1014300089E190E09A8B898B89899A890197F1F7E4
:101440009A8B898B8B899C8901979C8B8B8B8B8941
:101450009C89009769F714C06D897E898F89988D62
:101460000E944900DC01CB019C8B8B8B8B899C8972
:10147000988B8F878F8598890197F1F7988B8F8745
:10148000A8E3B0E0E8E3F0E0808180958C9380E011
:1014900090E0AAEFB3E48B879C87AD87BE876B850E
:1014A0007C858D859E8520E030E04AE753E40E94EC
:1014B0001F02DC01CB018F839887A987BA876F81D0
:1014C000788589859A8520E030E040E85FE30E94D6
:1014D000790388232CF481E090E09E838D833FC0C4
:1014E0006F81788589859A8520E03FEF4FE757E443
:1014F0000E94190318164CF56B857C858D859E8599
:1015000020E030E040E251E40E941F02DC01CB0108
:10151000BC01CD010E944900DC01CB019E838D837B
:101520000FC089E190E09C838B838B819C81019724
:10153000F1F79C838B838D819E8101979E838D83A0
:101540008D819E81009769F7A9CE6F817885898505
:101550009A850E944900DC01CB019E838D838D8199
:101560009E819A83898389819A810197F1F79A8371
:10157000898394CEDF93CF93CDB7DEB760970FB654
:10158000F894DEBF0FBECDBF988B8F87A2E3B0E08B
:10159000E2E3F0E0908181E089278C9380E090E0A5
:1015A000AAE7B4E48B879C87AD87BE876B857C8573
:1015B0008D859E8520E030E04AE753E40E941F02BB
:1015C000DC01CB018F839887A987BA876F817885E3
:1015D00089859A8520E030E040E85FE30E94790346
:1015E00088232CF481E090E09E838D833FC06F813F
:1015F000788589859A8520E03FEF4FE757E40E9480
:10160000190318164CF56B857C858D859E8520E029
:1016100030E040E251E40E941F02DC01CB01BC013A
:10162000CD010E944900DC01CB019E838D830FC058
:1016300089E190E09C838B838B819C810197F1F7FA
:101640009C838B838D819E8101979E838D838D8169
:101650009E81009769F714C06F81788589859A8586
:101660000E944900DC01CB019E838D838D819E8188
:101670009A83898389819A810197F1F79A83898373
:10168000A2E3B0E0E2E3F0E0908181E089278C936F
:10169000EBE3F0E08F85808360960FB6F894DEBFB1
:1016A0000FBECDBFCF91DF910895DF93CF93CDB71C
:1016B000DEB760970FB6F894DEBF0FBECDBF988B34
:1016C0008F87A2E3B0E0E2E3F0E0908181E0892738
:1016D0008C9380E090E0AAE7B4E48B879C87AD8789
:1016E000BE876B857C858D859E8520E030E04AE74E
:1016F00053E40E941F02DC01CB018F839887A987E6
:10170000BA876F81788589859A8520E030E040E846
:101710005FE30E94790388232CF481E090E09E83AC
:101720008D833FC06F81788589859A8520E03FEF62
:101730004FE757E40E94190318164CF56B857C851A
:101740008D859E8520E030E040E251E40E941F023A
:10175000DC01CB01BC01CD010E944900DC01CB01C1
:101760009E838D830FC089E190E09C838B838B8166
:101770009C810197F1F79C838B838D819E810197DA
:101780009E838D838D819E81009769F714C06F8140
:10179000788589859A850E944900DC01CB019E836A
:1017A0008D838D819E819A83898389819A81019716
:1017B000F1F79A838983A2E3B0E0E2E3F0E090815D
:1017C00081E089278C93E8E3F0E08F858B7F80832D
:1017D00060960FB6F894DEBF0FBECDBFCF91DF91FC
:1017E0000895DF93CF93CDB7DEB760970FB6F89427
:1017F000DEBF0FBECDBF988B8F87A2E3B0E0E2E3E0
:10180000F0E0908181E089278C9380E090E0AAE766
:10181000B4E48B879C87AD87BE876B857C858D857F
:101820009E8520E030E04AE753E40E941F02DC017D
:10183000CB018F839887A987BA876F81788589853F
:101840009A8520E030E040E85FE30E947903882336
:101850002CF481E090E09E838D833FC06F8178857A
:1018600089859A8520E03FEF4FE757E40E941903EE
:1018700018164CF56B857C858D859E8520E030E0C3
:1018800040E251E40E941F02DC01CB01BC01CD010A
:101890000E944900DC01CB019E838D830FC089E14A
:1018A00090E09C838B838B819C810197F1F79C83D3
:1018B0008B838D819E8101979E838D838D819E81F7
:1018C000009769F714C06F81788589859A850E9491
:1018D0004900DC01CB019E838D838D819E819A839B
:1018E000898389819A810197F1F79A838983A2E399
:1018F000B0E0E2E3F0E0908181E089278C93E5E3BA
:10190000F0E08F85808360960FB6F894DEBF0FBE3F
:10191000CDBFCF91DF9108952F923F924F925F926A
:101920006F927F928F929F92AF92BF92CF92DF92EF
:10193000EF92FF920F931F93CF93DF93CDB7DEB754
:10194000CA1BDB0B0FB6F894DEBF0FBECDBF0994E8
:101950002A88398848885F846E847D848C849B843F
:10196000AA84B984C884DF80EE80FD800C811B814D
:10197000AA81B981CE0FD11D0FB6F894DEBF0FBE7C
:0A198000CDBFED010895F894FFCFEC
:10198A000000000000000000005002015001025057
:08199A000314000A00280000FC
:00000001FF
